:100000000C9470030C9498030C9498030C9498032C
:100010000C9498030C9498030C9498030C949803F4
:100020000C9498030C9498030C94E1070C945008DA
:100030000C9498030C9498030C9498030C949803D4
:100040000C9498030C9498030C9498030C949803C4
:100050000C9498030C9498030C9498030C94820AC3
:100060000C9498030C9498030C9498030C949803A4
:100070000C9498030C9498030C9498030C94980394
:100080000C94CC0A0C9498030C9498030C94980349
:100090000C9498030C9498030C9498030C94980374
:1000A0000C9498030C9498030C949803000000009F
:1000B000003E5B4F5B3E3E6B4F6B3E1C3E7C3E1CEE
:1000C000183C7E3C181C577D571C1C5E7F5E1C0034
:1000D000183C1800FFE7C3E7FF0018241800FFE7EB
:1000E000DBE7FF30483A060E2629792926407F05AE
:1000F0000507407F05253F5A3CE73C5A7F3E1C1CC4
:1001000008081C1C3E7F14227F22145F5F005F5F83
:1001100006097F017F006689956A6060606060946F
:10012000A2FFA29408047E040810207E2010080874
:100130002A1C08081C2A08081E101010100C1E0C7F
:100140001E0C30383E3830060E3E0E060000000011
:100150000000005F00000007000700147F147F14F8
:10016000242A7F2A1223130864623649562050003D
:1001700008070300001C2241000041221C002A1C29
:100180007F1C2A08083E0808008070300008080814
:100190000808000060600020100804023E51494534
:1001A0003E00427F400072494949462141494D3352
:1001B0001814127F1027454545393C4A49493141B9
:1001C000211109073649494936464949291E000087
:1001D00014000000403400000008142241141414DC
:1001E0001414004122140802015909063E415D59C8
:1001F0004E7C1211127C7F494949363E41414122D1
:100200007F4141413E7F494949417F090909013EFA
:10021000414151737F0808087F00417F4100204021
:10022000413F017F081422417F404040407F021C33
:10023000027F7F0408107F3E4141413E7F0909094A
:10024000063E4151215E7F09192946264949493216
:1002500003017F01033F4040403F1F2040201F3FDC
:100260004038403F63140814630304780403615961
:10027000494D43007F4141410204081020004141A3
:10028000417F04020102044040404040000307084F
:100290000020545478407F2844443838444444284B
:1002A000384444287F385454541800087E090218F2
:1002B000A4A49C787F0804047800447D400020407A
:1002C000403D007F1028440000417F40007C0478BE
:1002D00004787C080404783844444438FC18242406
:1002E0001818242418FC7C08040408485454542486
:1002F00004043F44243C4040207C1C2040201C3C03
:100300004030403C44281028444C9090907C4464F9
:10031000544C44000836410000007700000041368C
:10032000080002010204023C2623263C1EA1A16112
:10033000123A4040207A3854545559215555794144
:100340002154547841215554784020545579400C1B
:100350001E527212395555555939545454593955FC
:100360005454580000457C410002457D420001453F
:100370007C40F0292429F0F0282528F07C545545AC
:10038000002054547C547C0A097F4932494949323F
:100390003248484832324A4848303A4141217A3A54
:1003A00042402078009DA0A07D39444444393D401E
:1003B00040403D3C24FF2424487E4943662B2FFCCB
:1003C0002F2BFF0929F620C0887E09032054547979
:1003D000410000447D413048484A32384040227A4A
:1003E000007A0A0A727D0D19317D2629292F2826C7
:1003F0002929292630484D402038080808080808CF
:100400000808382F10C8ACBA2F102834FA00007B27
:10041000000008142A142222142A1408950022002D
:1004200095AA005500AAAA55AA55AA000000FF00E7
:10043000101010FF00141414FF001010FF00FF1024
:1004400010F010F0141414FC001414F700FF000056
:10045000FF00FF1414F404FC141417101F10101FD5
:10046000101F1414141F00101010F0000000001FC3
:10047000101010101F10101010F010000000FF10CE
:100480001010101010101010FF10000000FF1400CA
:1004900000FF00FF00001F10170000FC04F41414FC
:1004A0001710171414F404F40000FF00F7141414C8
:1004B00014141414F700F7141414171410101F1048
:1004C0001F141414F4141010F010F000001F101F6B
:1004D0000000001F14000000FC140000F010F010D9
:1004E00010FF10FF141414FF141010101F00000050
:1004F00000F010FFFFFFFFFFF0F0F0F0F0FFFFFF54
:100500000000000000FFFF0F0F0F0F0F38444438AA
:10051000447C2A2A3E147E02020606027E027E02E5
:1005200063554941633844443C04407E201E200604
:10053000027E020299A5E7A5991C2A492A1C4C7241
:1005400001724C304A4D4D303048784830BC625AC8
:10055000463D3E494949007E0101017E2A2A2A2A58
:100560002A44445F444440514A444040444A514034
:100570000000FF0103E080FF000008086B6B0836F5
:1005800012362436060F090F060000181800000066
:100590001010003040FF0101001F01011E00191D55
:1005A0001712003C3C3C3C0000000000F0F89C8E20
:1005B0008783878E9CF8F00000FEFF03030303038C
:1005C000070EFCF80000FEFF0303030303070EFC05
:1005D000F80000FFFF00000000000000FFFF000027
:1005E000FEFF8383838383C7EE7C380000F8FC0E14
:1005F00007030303070EFCF800003F7FE0C0808084
:10060000C0E07F3FFFFF01010101010101FFFF0089
:1006100000FFFF0C0C0C0C1C3E77E3C100007FFFB9
:10062000C0C0C0C0C0E0703F1F00001F3F70E0C0EE
:10063000C0C0E0703F1F00007FFFC1C1C1C1C1E366
:10064000773E1C00001F3F70E0C0C0C0E0703F1F3D
:10065000000000000001FFFF01000000D5F08D1434
:10066000A1C881CFD9F1AF2000080B00020202001F
:100670000009040000010202000005240010010529
:100680002401010104240206052406000107058156
:100690000310004009040100020A000000070502DF
:1006A0000240000007058302400000040309041211
:1006B000010002EF020140412336800001010203E4
:1006C0000141726475696E6F204C4C430041726445
:1006D00075696E6F204C656F6E6172646F00010CFE
:1006E00011241FBECFEFDAE0DEBFCDBF11E0A0E0E6
:1006F000B1E0E2EFFDE202C005900D92AC34B1072B
:10070000D9F725E0ACE4B1E001C01D92A23FB207E9
:10071000E1F713E0C0E7D3E004C02197FE010E9497
:10072000FF14CF36D107C9F70E94340C0C94F7168A
:100730000C94000080915D010895E8E8F1E0A0E0EC
:10074000B8E000800EBC8111012C1197A0FDFDCFF7
:100750000192B9F70DB40895FC01809187018823B7
:1007600011F13FB7F89482E08093E9002091F20004
:10077000822F90E01816190614F481E090E0882387
:1007800039F0289844E6409386014091F100408377
:10079000222339F02091F200211103C02BE620938F
:1007A000E8003FBF08958FEF9FEF08952FB7F894AB
:1007B00083E08093E9009091E800892F807295FF93
:1007C00004C09091F20080E4891B2FBF08958091AE
:1007D0007E0181110DC082E080937A0184E08093D4
:1007E0007B0110927D0110927C0181E080937E015B
:1007F0008AE791E00895CF93DF931F92CDB7DEB7DC
:100800006983DC01ED91FC910280F381E02D41E0F0
:1008100050E0BE016F5F7F4F09950F90DF91CF9140
:10082000089583E08093E9008091F200882319F015
:100830008AE38093E80008950E94D60390E008952B
:10084000CF93DF931F92CDB7DEB7FC0184859585EA
:1008500097FD08C02FEF3FEF358724870F90DF917A
:10086000CF910895CE0101960E94AC03019719F42F
:10087000898190E0F3CF8FEF9FEFF0CF0F931F931D
:10088000CF93DF931F92CDB7DEB78C01FC01848537
:10089000958597FF0BC0CE0101960E94AC0301978E
:1008A00071F4898190E0F80195878487F801848547
:1008B00095850F90DF91CF911F910F9108958FEF44
:1008C0009FEFF1CFFC018485958597FD0BC09FB705
:1008D000F89482E08093E9008091F2009FBF90E05D
:1008E000019608959FB7F89482E08093E900809183
:1008F000F2009FBF90E008954091740150917501FE
:10090000209172013091730142175307B4F4909112
:10091000E8009570E1F39091E80092FD19C0809392
:10092000F100809174019091750101968F73992760
:10093000892B19F48EEF8093E800809174019091D7
:1009400075010196909375018093740181E008957B
:1009500080E00895DF92EF92FF920F931F93CF9361
:10096000DF93D82E8A01EB017B01E40EF51ECE1534
:10097000DF0559F0D7FE12C0FE0184910E947C046D
:1009800021968111F4CF0FEF1FEFC801DF91CF91B6
:100990001F910F91FF90EF90DF9008958881EECF27
:1009A0000F931F93CF93DF931F92CDB7DEB782E0F3
:1009B000898342E450E069E676E080E80E94AA0478
:1009C0000E94E703DC0112960D911C91011511059F
:1009D00089F0D801ED91FC910280F381E02DBE01F8
:1009E0006F5F7F4FC801099597FD04C0F80100852E
:1009F0001185ECCF89810F90DF91CF911F910F91DD
:100A00000895615030F02091F100FC01208301969F
:100A1000F8CF289884E6809386010895AF92BF921C
:100A2000CF92DF92EF92FF920F931F93CF93DF93BA
:100A30006C017B018B01040F151FEB015E01AE18E9
:100A4000BF08C017D10759F06991D601ED91FC910B
:100A50000190F081E02DC6010995892B79F7C50138
:100A6000DF91CF911F910F91FF90EF90DF90CF908A
:100A7000BF90AF9008953FB7F8948091590190913D
:100A80005A01A0915B01B0915C0126B5A89B05C0FD
:100A90002F3F19F00196A11DB11D3FBFBA2FA92FFD
:100AA000982F8827BC01CD01620F711D811D911DFA
:100AB00042E0660F771F881F991F4A95D1F7089566
:100AC0008F929F92AF92BF92CF92DF92EF92FF925E
:100AD0006B017C010E943B054B015C01C114D104F8
:100AE000E104F104B9F00E943B05681979098A090B
:100AF0009B09683E73408105910580F321E0C21A8D
:100B0000D108E108F10888EE880E83E0981EA11C48
:100B1000B11CE4CFFF90EF90DF90CF90BF90AF90EB
:100B20009F908F9008958F929F92AF92BF92CF9295
:100B3000DF92EF92FF920F931F93CF93DF936C019D
:100B40007B018A0180911C01882309F45CC080919B
:100B50008701882309F457C08091790180FF05C07F
:100B60008091E00082608093E000E801B12C8AEF80
:100B7000A82E93E0892E2AE3922E209711F4BB2011
:100B8000D9F10E94D60381110AC0AA94AA20D9F1F2
:100B900061E070E080E090E00E946005EECF8C178D
:100BA0001D0611F00CF08C2F9FB7F8948092E9008D
:100BB0002091E80025FD02C09FBFDFCF282F30E045
:100BC000C21BD30BF701815020F041914093F100FB
:100BD000FACFE20EF31EBB2021F09092E800B12C78
:100BE000EBCF8091E80085FDE7CF9092E800BB2431
:100BF000B394209709F3F3CF5D9884E6809378014E
:100C0000101611063CF081E090E0F6019383828398
:100C100010E000E0C801DF91CF911F910F91FF908C
:100C2000EF90DF90CF90BF90AF909F908F900895FE
:100C300020914C01E0914F01F0915001CF010296BB
:100C40009093500180934F01222319F08591949144
:100C500008958081918108952D9A0895BC0190E0B6
:100C600080E00C9460058FB18095807F669B8860E2
:100C70001C9B8460089580E00C949D03803891054E
:100C8000B8F460347105A0F420E191E061FD94E0D6
:100C900060FD990F62FD9295687F269FD001112417
:100CA000A80FA857BE4F8C9140FF03C0892B8C938F
:100CB000089590958923FBCFEF92FF920F931F9396
:100CC000CF93DF937C018B01040F111DEB0177FFA4
:100CD00002C0D0E0C0E0C8010134110514F080E486
:100CE00090E0C817D9073CF441E0BE01C7010E945B
:100CF0003E062196F0CFDF91CF911F910F91FF908B
:100D0000EF9008958F929F92AF92BF92CF92DF9211
:100D1000EF92FF920F931F93CF93DF936D3089F083
:100D2000C0907001D09071016A30D1F410926F01BF
:100D300010926E0188E0C80ED11CD0927101C09251
:100D4000700181E090E0DF91CF911F910F91FF90B2
:100D5000EF90DF90CF90BF90AF909F908F900895CD
:100D600000916E0110916F01E5E06E9FE00111248A
:100D7000C455DF4F4801F12CF5E0E12CFF1629F0B6
:100D8000CE010196FE01E490EC01B12CA12C4E2D78
:100D90004170B6016A0D7B1DC4010E943E06E694B7
:100DA000FFEFAF1ABF0A88E0A816B10481F7F394E9
:100DB000EFEF8E1A9E0AF6E0FF12DECF0A5F1F4F9A
:100DC00010936F0100936E01BCCF209166013091AA
:100DD00067018091680190916901281B390B2430CB
:100DE00031050CF44CC0032E000C440B550B245061
:100DF000310941095109A9E0B0E00E94B913DC01B1
:100E0000CB0122E0B595A795979587952A95D1F7BF
:100E10000196A11DB11D9C01215F3F4F3093100130
:100E200020930F012FE030E0281B390B3093040191
:100E30002093030180910F01909110018A31910557
:100E400014F089E190E08430910514F484E090E09E
:100E50009093100180930F01809103019091040100
:100E60008A31910514F089E190E08430910514F401
:100E700084E090E0909304018093030108952D3F56
:100E80008FEF38073CF5032E000C440B550B2C5FFD
:100E90003F4F4F4F5F4FA7EFBFEF0E94C71324E0B4
:100EA00030E040E050E00E949A13BA01A901409559
:100EB000509560957095CA010F969093100180939C
:100EC0000F018FE090E0841B950B909304018093B9
:100ED0000301B0CF8FE090E09093100180930F0159
:100EE000F4CF089590E080E00895CF92DF92EF92E2
:100EF000FF920F931F93CF93DF93CDB7DEB7629727
:100F00000FB6F894DEBF0FBECDBF8C01CB01F80148
:100F10001182108213821282158214824AE09E018D
:100F20002F5F3F4F6901B9010E945412F6010190F1
:100F30000020E9F731977F01EC18FD08F801808166
:100F40009181009729F0228133812E153F0590F47D
:100F5000B7016F5F7F4F0E942A16F801009799F042
:100F600091838083F382E28224813581232B11F4E3
:100F7000FC011082F801F582E482B6018081918142
:100F80000E94F0160DC080819181009711F00E949F
:100F9000A115F80111821082158214821382128227
:100FA00062960FB6F894DEBF0FBECDBFDF91CF9132
:100FB0001F910F91FF90EF90DF90CF9008950C94C8
:100FC00084131F920F920FB60F9211248F939F9349
:100FD0008091E1009091E100937F9093E10083FF85
:100FE0000FC01092E90091E09093EB001092EC009A
:100FF00092E39093ED001092870198E09093F000B7
:1010000082FF22C093E09093E9009091F20099232F
:1010100019F09AE39093E80090917801992341F0B8
:1010200090917801915090937801911101C05D9A4F
:1010300090918601992341F090918601915090936F
:101040008601911101C0289A84FF18C08091E200A6
:101050008E7E81608093E2008091E1008F7E80939C
:10106000E100809179018E7E8061809379019F916A
:101070008F910F900FBE0F901F90189580FFF7CFA4
:101080008091E2008E7E80618093E2008091E10099
:101090008E7E8093E100809179018E7E8160E5CF24
:1010A0001F920F920FB60F921124CF92DF92EF9200
:1010B000FF920F931F932F933F934F935F936F93E1
:1010C0007F938F939F93AF93BF93EF93FF93CF93B0
:1010D000DF93CDB7DEB76C97DEBFCDBF1092E900CE
:1010E0008091E80083FF25C068E0CE0145960E940C
:1010F000010582EF8093E8008D8987FF39C09091C8
:10110000E80090FFFCCF982F907609F034C19E89BB
:101110004F89588D2F89F88C911131C0803861F535
:10112000809177018093F1001092F1008EEF80930F
:10113000E8006C960FB6F894DEBF0FBECDBFDF910E
:10114000CF91FF91EF91BF91AF919F918F917F913F
:101150006F915F914F913F912F911F910F91FF9050
:10116000EF90DF90CF900F900FBE0F901F901895CB
:101170009EEF9093E800C7CF1092F100D5CF913049
:1011800059F48111D3CF4130510581F68091770117
:101190008D7F80937701CACF933049F48111C6CFF8
:1011A0004130510519F6809177018260F2CF953078
:1011B00041F48091E80080FFFCCF20682093E30099
:1011C000B5CF963009F0A9C00B8D1C8D22E010928E
:1011D000E9001092750110927401F2122EC0109263
:1011E0007301109272010E94D0041F8299E09983CA
:1011F000FA8291E09E8390EA98879AEF99872091EE
:10120000740130917501275F3F4F3C832B838D83A1
:101210001092E900109275011092740110937301FD
:101220000093720149E050E0BE016F5F7F4F80E0A4
:101230000E94AA040E94D00479CF109373010093F6
:1012400072010E94E703DC0112960D911C910115B9
:10125000110509F451C1D801ED91FC910480F5818B
:10126000E02DBE016B5E7F4FC8010995009709F024
:101270003EC1F80100851185EACFF3E0FF120EC0F0
:101280008F89882309F440C0823061F440E860E12E
:101290008DEC96E00E94CE0B811148CF81E28093C5
:1012A000EB0047CF813029F440E86BE081EC96E019
:1012B000F1CF833099F70E94E703DC011296ED909D
:1012C000FC908E010F5F1F4F6801E114F10479F06B
:1012D000D701ED91FC910680F781E02DB801C7019F
:1012E0000995080F111DF701E084F184EECFD801B4
:1012F0001C92F60101900020E9F73197BF016C19AB
:101300007D0940E0C601C6CF6BEA76E0FB0144915F
:1013100050E080E80E94AA0409CF973009F4BECFBC
:10132000983021F481E08093F10000CF993009F0EA
:10133000FDCE837009F0B2CFE8E2F1E081E031E068
:1013400096E32191222371F08093E9003093EB0022
:10135000DF0111972C912093EC009093ED008F5FAB
:10136000873079F78EE78093EA001092EA008F8940
:1013700080938701DBCE8B8D9C8D1092E9001092BB
:101380007501109274019093730180937201898D9D
:10139000811192C08E899D89913A49F4813209F078
:1013A0007DCF47E050E065E171E080E0B3CF91325E
:1013B00009F074CF833269F48F89988DB0E0A0E092
:1013C0008093110190931201A0931301B093140123
:1013D000ADCE803269F48091E80082FFFCCF67E0F7
:1013E00085E191E00E9401058BEF8093E8009ECE9D
:1013F000823209F09BCE8F8980931C01EEEFFFE7CC
:10140000859194918B3F9C4D51F1E0E0F8E0809103
:10141000150190911601A0911701B0911801803B20
:101420009440A105B105F1F480911C0180FD1AC022
:10143000EE3F8AE0F80789F587E797E79183808395
:10144000809160008093760188E19BE00FB6F8946C
:10145000A895809360000FBE9093600067CEEEEF7A
:10146000FAE0D5CF808191818737974709F05ECE2A
:10147000A8958091600088618093600080917601DA
:1014800080936000EE3F2AE0F20789F08091FE0A27
:101490009091FF0A9183808349CE80819181873723
:1014A000980751F29093FF0A8093FE0AC5CF1092DD
:1014B000FF0A1092FE0A3ACE0E94E703DC01129660
:1014C0000D911C910115110509F4E8CED801ED919B
:1014D000FC910190F081E02DBE016B5E7F4FC80151
:1014E0000995811123CEF80100851185EBCF1816DF
:1014F00019060CF41BCED2CEF1E0FF12BECE6FEA7D
:1015000076E004CF1F920F920FB60F9211242F9303
:101510003F938F939F93AF93BF9380915E01909180
:101520005F01A0916001B09161013091580123E009
:10153000230F2D3758F50196A11DB11D2093580199
:1015400080935E0190935F01A0936001B09361016D
:101550008091590190915A01A0915B01B0915C0179
:101560000196A11DB11D8093590190935A01A0933A
:101570005B01B0935C01BF91AF919F918F913F91BF
:101580002F910F900FBE0F901F90189526E8230FF4
:101590000296A11DB11DD2CF1F920F920FB60F92CE
:1015A0001124CF92DF92EF92FF922F933F934F93AC
:1015B0005F936F937F938F939F93AF93BF93CF93DB
:1015C000DF93EF93FF938091540190915501A09187
:1015D0005601B0915701892B8A2B8B2B09F446C0F9
:1015E0008091530181110BC088B190E4892788B99B
:1015F00080915201882319F088B1805888B9809170
:10160000540190915501A0915601B09157011816BF
:1016100019061A061B069CF48091540190915501FD
:10162000A0915601B09157010197A109B10980938A
:10163000540190935501A0935601B0935701FF9127
:10164000EF91DF91CF91BF91AF919F918F917F915A
:101650006F915F914F913F912F91FF90EF90DF90AD
:10166000CF900F900FBE0F901F9018950E941806F4
:10167000811520E8920761F4809171008D7F80933D
:101680007100109291004698479810925101D7CF5F
:1016900021E020935101813020E8920731F410922B
:1016A000500110924F010E94180697FD05C020912D
:1016B0004E01222309F454C020914D01211150C044
:1016C00021E020935201EC01DF77209709F04BC015
:1016D00081E08093530146983FE9C32E3FE0D32E2B
:1016E000E12CF12CCAEFD0E0E091E605F091E7059E
:1016F0000995811103C081E08093530180915201CB
:10170000882329F080915301882309F43FC047982A
:101710000E9418060097F1F19C01DE010E94251439
:10172000DC01CB0129E0B595A795979587952A957A
:10173000D1F7109290002AE020939100D092990066
:10174000C09298008093540190935501A093560144
:10175000B0935701809171008260809371006FCFC8
:1017600010925201B0CF9E0150E040E060E472E47C
:101770008FE090E00E949A1369017A0181E0C81A13
:10178000D108E108F10810925301AECF4699BFCFBE
:10179000479ABECF8FEF9FEFDC01CBCFEF92FF9246
:1017A0000F931F93CF93DF93F82E192FE62E042F5C
:1017B00081E0860F880F0E947C0483E00E947C04F5
:1017C000CF2DD12FEC0EFD2EF11CCE15DF05B9F07B
:1017D00007FF13C0FE0184910E947C04182F80E053
:1017E0000E947C04812321968111EFCFDF91CF915C
:1017F0001F910F91FF90EF9008958881EDCF81E0C8
:10180000F5CFE8E8F5E01382128288EE93E0A0E0DD
:10181000B0E084839583A683B78382E391E09183CC
:1018200080838FEF9FEF95878487EAEEF5E0138240
:10183000128284E491E0918380838AE993E090931B
:10184000E7058093E60580E090E89093E5058093B6
:10185000E40546983E9A47983F9A8AE790E090932D
:10186000E9058093E8050895CF93DF93CDB7DEB700
:1018700028970FB6F894DEBF0FBECDBF789484B51D
:10188000826084BD84B5816084BD85B5826085BD7C
:1018900085B5816085BD80916E00816080936E000A
:1018A00010928100809181008260809381008091FC
:1018B00081008160809381008091800081608093AD
:1018C00080008091910082608093910080919100CE
:1018D000816080939100809190008160809390005E
:1018E0008091C10084608093C1008091C1008260BA
:1018F0008093C1008091C10081608093C10080917C
:10190000C30081608093C3008091C0008260809397
:10191000C0008091C20081608093C20080917A00F3
:10192000846080937A0080917A00826080937A004C
:1019300080917A00816080937A0080917A0080683B
:1019400080937A00109287011092770110927901AA
:101950008091D70081608093D70080EA8093D8007F
:1019600089B5806189BD89B5826089BD09B400FEF1
:10197000FDCF61E070E080E090E00E946005809122
:10198000D8008F7C80618093D8008091E000807FB8
:101990008093E0008091E1008E7E8093E1008DE0F5
:1019A0008093E200559A209A81EC80937C0085B167
:1019B000806F85B984B1877E84B984B1876E84B91C
:1019C0005E9A5F988AB1806D8AB9769A6E9881B373
:1019D000806F81BB899880B38D7080BB80E58CBDA2
:1019E00081E08DBD85E090E00E942E065F9A85E043
:1019F00090E00E942E065E985C98ECE5F6E089E6A1
:101A000096E024912EBD00000DB407FEFDCF319667
:101A10008E179F07B1F75C9A81E8809364008091EC
:101A200065008160809365000E943B060E9433063A
:101A300087FF15C05C9885EA8EBD00000DB407FED7
:101A4000FDCF5C9A2E982F982D988091640080622B
:101A50008093640081E083BF889513BEFCCF0E9411
:101A6000330682FF48C02D980E943306847884385C
:101A7000E1F40E942C0688EC90E00E942E062F983C
:101A800082E090E00E9484138F3F29F06FEF82E0A4
:101A900090E00E948C1384EF91E00E942E062F9A12
:101AA0000E94330684788438D9F30E943306847107
:101AB0008431E1F40E942C0688EC90E00E942E060E
:101AC0002E9882E090E00E948413882329F060E041
:101AD00082E090E00E948C1384EF91E00E942E0639
:101AE0002E9A0E94330684718431D9F388EC90E0F9
:101AF0000E942E06B4CF0E942C0682E090E00E9445
:101B0000DF07882309F441C03E9A3F9A81E0809321
:101B10005D0181E090E00E94DF07282F2470722E83
:101B200081FF0FC021112E9801EF1FEFE8E0EE2E8C
:101B3000F12C0E94330686FF2DC02E9A2F9A0E9408
:101B40002C0682E390E00E942E060E94330681114B
:101B5000F8CF82E4809300018FB7F89440915E0142
:101B600050915F0160916001709161018FBF809120
:101B70006401882309F4CDC010926401A0E0B0E0B4
:101B8000AB2B51F30E940000E7CF10925D013E980D
:101B90003F98BFCF772029F00430110511F42E9A19
:101BA0002F9881E00E949D03980117FF04C022270F
:101BB0003327201B310B27703327C80117FD0796E9
:101BC00073E0959587957A95E1F717FF05C0019722
:101BD000A701421B530B9A01AC015695542F442781
:101BE0005795479548575E4FB0E0A0E02701421A4D
:101BF000530A8E3F6FEF960709F43BC06A01E4E990
:101C0000CE0ED11C5A0170E060E0FD01E455FA4FA0
:101C10004F018F3F980779F0F401E60FF71FE49129
:101C2000F0E01F01022E01C0220C0A94EAF7F50130
:101C300064882628248A2115310581F0F401E60FF5
:101C4000F71FE491F0E01F01042C02C035942794A3
:101C50000A94E2F7F6016080262820826F5F7F4FAA
:101C6000FFEFCF1ADF0AEFEFAE1ABE0A6835710533
:101C700081F60196A85ABF4F40585F4FA03BB1056F
:101C800009F0B7CF0E943B068FE090E00E942E063D
:101C90000F5F1F4F0931110509F04BCF772011F06D
:101CA0002F9A2D9880E991E00E942E060E942C0622
:101CB00081E090E00E94DF0780FF43CF8AE090E060
:101CC0000E94DF079FEF980F9E3F08F03ACF22E374
:101CD00030E030936F0120936E0128E330E03093C1
:101CE0007101209370010BE010E0682F8AEE95E0FF
:101CF0000E948206C8010E94DF070F5F1F4F01315B
:101D0000110599F70E943B0688EE93E00E942E068B
:101D100018CF90916501F42FF91B9F2F209100019E
:101D2000F21748F49F5F921708F028CF21E023BFF5
:101D3000889513BE23CF91E0909364014093650191
:101D400020916201309163012F5F3F4F3093630117
:101D500020936201E8E8F1E081118FEF0024819384
:101D60008193819381930394D1F710927101109222
:101D7000700110926F0110926E010E94330687FF6E
:101D800016C080910F019091100197FD01969595D5
:101D9000879520910D0130910E01821793070CF069
:101DA0003EC12450310930930E0120930D010E9451
:101DB000330684FF1CC080910F019091100197FDA4
:101DC00001969595879591958195910920910D01A1
:101DD00030910E01AC01415C5F4F421753070CF488
:101DE00023C12C5F3F4F30930E0120930D01809152
:101DF0000B0190910C01823091050CF01CC1A2E006
:101E0000B0E0B0930C01A0930B0180916A01909116
:101E10006B01A0916C01B0916D01B05880936A0183
:101E200090936B01A0936C01B0936D0180910901B7
:101E300090910A01C0900501D0900601E090070141
:101E4000F09008018F3791050CF4FFC080E490E01A
:101E500090930A018093090140E250E050930C01F5
:101E600040930B01F7FAF094F7F8F094C092050153
:101E7000D0920601E0920701F09208010E94FC1145
:101E80002DE030E040E050E00E949A136650710966
:101E9000810991090E948B1260936A0170936B0112
:101EA00080936C0190936D0180916801909169011C
:101EB000019690936901809368010E94E5068091E4
:101EC000090190910A01C0900501D0900601E090AF
:101ED0000701F0900801181619060CF40FC180E4F0
:101EE00090E090930A0180930901E0E2F0E0F09322
:101EF0000C01E0930B01F7FAF094F7F8F094C0921C
:101F00000501D0920601E0920701F09208010E94BB
:101F1000FC112DE030E040E050E00E949A13665042
:101F20007109810991090E948B1260936A01709373
:101F30006B0180936C0190936D018091660190918B
:101F40006701019690936701809366010E94E50600
:101F50006091090170910A01072E000C880B990B02
:101F60000E948B12209105013091060140910701DA
:101F7000509108010E9435140E94A1146B017093C6
:101F80000A016093090160910B0170910C01072E09
:101F9000000C880B990B0E948B1220916A013091E2
:101FA0006B0140916C0150916D010E9435140E94AB
:101FB000A1142B0170930C0160930B01209103017C
:101FC0002F83409104014887209101013091020143
:101FD0008F81942F6DEF7FEF0E94D714620F731FD4
:101FE000461657060CF0DEC022503109309302012C
:101FF0002093010110E000E0580153E0A50EB11C50
:1020000048018A149B0409F4DCC041E0B40180E477
:1020100090E00E943E066FEF861A960AF2CF9093E8
:102020000E0180930D01C3CE805C9F4F90930E01F3
:1020300080930D01DCCECF970CF4F8CEEEE3F0E008
:10204000F0930C01E0930B01E0CE2091E805309174
:10205000E90523503109821793070CF430CF8091A2
:10206000030190910401E0910101F091020160915E
:102070000B0170910C01AC0197FF02C04F5F5F4FE5
:1020800055954795DF01A41BB50BAD014250510991
:10209000641775070CF413CF97FD019695958795F6
:1020A0008E0F9F1F0296861797070CF408CF309368
:1020B0000A0120930901F7FAF094F7F8F094C0921E
:1020C0000501D0920601E0920701F09208016E1B13
:1020D0007F0B072E000C880B990B0E948B1220E0BF
:1020E00030E040E45FE30E94C61260936A0170939F
:1020F0006B0180936C0190936D01E1CE0A970CF017
:1021000027CF80910F019091100140910D015091C6
:102110000E0160910B0170910C019C0197FF02C0B0
:102120002F5F3F4F35952795DA01A21BB30B9D0119
:1021300022503109621773070CF40ACF97FD0196FC
:1021400095958795840F951F0296861797070CF42F
:10215000FFCEE9E0F0E0F0930A01E0930901F7FA1D
:10216000F094F7F8F094C0920501D0920601E09245
:102170000701F0920801641B750B072E000C880BF9
:10218000990B0E948B1220E030E040E45FE30E9454
:10219000C61260936A0170936B0180936C019093F7
:1021A0006D01D6CE8F81988563E070E00E94D714D0
:1021B000620F731F641575050CF01CCF2E5F3F4F27
:1021C00015CF085F1F4F0034110509F015CF8201AC
:1021D0000250110945E0B801C6010E945C061601D3
:1021E0008FEF281A380A45E0B801C1010E945C0649
:1021F00091E0491A51085601A2E0AA0EB11C43E031
:10220000B201C5010E945C064601B1E08B1A91083B
:1022100045E0B801C4010E945C06E2E0CE1AD10894
:1022200043E0B201C6010E945C0643E0B201C50171
:102230000E945C0645E0B801C1010E945C0643E0D3
:10224000B201C6010E945C0645E0B801C4010E94CB
:102250005C06F0900F018F2D9091100197FD019673
:102260009595879500910D0110910E01081B190B92
:102270004F2DB80185E090E00E945C064F2DB8011B
:1022800086E090E00E945C064F2DB80187E090E068
:102290000E945C06BF808B2D988597FD01969595D1
:1022A0008795E0900101F0900201E81AF90A009187
:1022B000E8051091E9056801F1E0CF1AD1080E5F39
:1022C0001F4FC016D10649F04B2DB701C6010E9421
:1022D0005C062FEFC21AD20AF4CF48E250E05093C6
:1022E0006F0140936E011092710110927001609124
:1022F000680170916901CE0101960E9475074D81B8
:102300005E8169817A818AEE95E00E940E0589815D
:102310009A81009711F00E94A11584E590E09093B6
:102320006F0180936E0110927101109270016091A3
:10233000660170916701CE0101960E9475074D817B
:102340005E8169817A818AEE95E00E940E0589811D
:102350009A81009711F00E94A1150E943B060ECCB5
:102360008F929F92AF92BF92CF92DF92EF92FF92A5
:10237000CF93DF93EC01688179818A819B8161151C
:1023800071058105910521F464E279ED8BE597E013
:102390002DE133EF41E050E00E949A1349015A01C8
:1023A0009B01AC01A7EAB1E40E94B9136B017C0167
:1023B000ACEEB4EFA50194010E94C713C60ED71E60
:1023C000E81EF91EF7FE06C081E0C81AD108E10830
:1023D00080E8F80AC882D982EA82FB82C701B60186
:1023E0009F77DF91CF91FF90EF90DF90CF90BF90DC
:1023F000AF909F908F9008958F929F92AF92BF92CF
:10240000CF92DF92EF92FF9260911D0170911E01B9
:1024100080911F0190912001611571058105910541
:1024200021F464E279ED8BE597E02DE133EF41E0B3
:1024300050E00E949A1349015A019B01AC01A7EA9E
:10244000B1E40E94B9136B017C01ACEEB4EFA501BD
:1024500094010E94C713C60ED71EE81EF91EF7FE90
:1024600006C081E0C81AD108E10880E8F80AC092E5
:102470001D01D0921E01E0921F01F0922001C701C0
:10248000B6019F77FF90EF90DF90CF90BF90AF9015
:102490009F908F90089560931D0170931E0180930B
:1024A0001F01909320010895BB274A3031F49923EE
:1024B00022F4BDE2909581959F4F0C946012BB274A
:1024C000FB015527AA27880F991FAA1FA41710F0F0
:1024D000A41B83955051B9F7A05DAA3308F0A95DFC
:1024E000A193009779F7B111B1931192CB010C949C
:1024F0007912DC01FC01672F71917723E1F73297A4
:1025000004C07C916D9370836291AE17BF07C8F3CE
:102510000895E89409C097FB3EF4909580957095D6
:1025200061957F4F8F4F9F4F9923A9F0F92F96E91F
:10253000BB279395F695879577956795B795F11194
:10254000F8CFFAF4BB0F11F460FF1BC06F5F7F4F31
:102550008F4F9F4F16C0882311F096E911C0772343
:1025600021F09EE8872F762F05C0662371F096E84C
:10257000862F70E060E02AF09A95660F771F881F1B
:10258000DAF7880F9695879597F908950E94D912E2
:102590000C944A130E943C1338F00E94431320F01D
:1025A000952311F00C9433130C94391311240C94CB
:1025B0007E130E945B1370F3959FC1F3950F50E05B
:1025C000551F629FF001729FBB27F00DB11D639FE5
:1025D000AA27F00DB11DAA1F649F6627B00DA11D8B
:1025E000661F829F2227B00DA11D621F739FB00D31
:1025F000A11D621F839FA00D611D221F749F3327A1
:10260000A00D611D231F849F600D211D822F762F39
:102610006A2F11249F5750409AF0F1F088234AF016
:10262000EE0FFF1FBB1F661F771F881F9150504082
:10263000A9F79E3F510580F00C9433130C947E1340
:102640005F3FE4F3983ED4F3869577956795B79509
:10265000F795E7959F5FC1F7FE2B880F911D969523
:10266000879597F9089597F99F6780E870E060E093
:1026700008959FEF80EC089500240A94161617061B
:1026800018060906089500240A9412161306140663
:1026900005060895092E0394000C11F4882352F0C6
:1026A000BB0F40F4BF2B11F460FF04C06F5F7F4F7E
:1026B0008F4F9F4F089557FD9058440F551F59F065
:1026C0005F3F71F04795880F97FB991F61F09F3F1F
:1026D00079F087950895121613061406551FF2CF48
:1026E0004695F1DF08C0161617061806991FF1CF98
:1026F00086957105610508940895E894BB276627BF
:102700007727CB0197F90895F999FECF92BD81BD46
:10271000F89A992780B50895262FF999FECF1FBA08
:1027200092BD81BD20BD0FB6F894FA9AF99A0FBEFA
:1027300001960895052E97FB1EF400940E94B11394
:1027400057FD07D00E94031407FC03D04EF40C94ED
:10275000B11350954095309521953F4F4F4F5F4FA6
:10276000089590958095709561957F4F8F4F9F4FFD
:1027700008950E942514A59F900DB49F900DA49FCD
:10278000800D911D11240895B7FF0C94B9130E9478
:10279000B913821B930B08952F923F924F925F9231
:1027A0006F927F928F929F92AF92BF92CF92DF9261
:1027B000EF92FF920F931F93CF93DF93CDB7DEB7C6
:1027C000CA1BDB0B0FB6F894DEBF0FBECDBF09945A
:1027D0002A88398848885F846E847D848C849B84B1
:1027E000AA84B984C884DF80EE80FD800C811B81BF
:1027F000AA81B981CE0FD11D0FB6F894DEBF0FBEEE
:10280000CDBFED010895A1E21A2EAA1BBB1BFD014D
:102810000DC0AA1FBB1FEE1FFF1FA217B307E407BF
:10282000F50720F0A21BB30BE40BF50B661F771F17
:10283000881F991F1A9469F76095709580959095F7
:102840009B01AC01BD01CF010895A29FB001B39FD0
:10285000C001A39F700D811D1124911DB29F700DA9
:10286000811D1124911D08955058BB27AA270E944D
:102870004C140C944A130E943C1338F00E944313EA
:1028800020F039F49F3F19F426F40C9439130EF418
:10289000E095E7FB0C943313E92F0E945B1358F388
:1028A000BA17620773078407950720F079F4A6F535
:1028B0000C947D130EF4E0950B2EBA2FA02D0B0176
:1028C000B90190010C01CA01A0011124FF27591B75
:1028D00099F0593F50F4503E68F11A16F040A22F7B
:1028E000232F342F4427585FF3CF469537952795EC
:1028F000A795F0405395C9F77EF41F16BA0B620BEB
:10290000730B840BBAF09150A1F0FF0FBB1F661F31
:10291000771F881FC2F70EC0BA0F621F731F841F74
:1029200048F4879577956795B795F7959E3F08F09A
:10293000B0CF9395880F08F09927EE0F979587955C
:1029400008950E94A8146894B1110C947E13089500
:102950000E94631388F09F5798F0B92F9927B751B9
:10296000B0F0E1F0660F771F881F991F1AF0BA9533
:10297000C9F714C0B13091F00E947D13B1E0089501
:102980000C947D13672F782F8827B85F39F0B93FF3
:10299000CCF3869577956795B395D9F73EF49095E6
:1029A0008095709561957F4F8F4F9F4F089597FB4E
:1029B000072E16F4009407D077FD09D00E94EB147F
:1029C00007FC05D03EF4909581959F4F0895709532
:1029D00061957F4F0895AA1BBB1B51E107C0AA1F39
:1029E000BB1FA617B70710F0A61BB70B881F991FB0
:1029F0005A95A9F780959095BC01CD010895EE0FE9
:102A0000FF1F0590F491E02D09940F931F93CF932E
:102A1000DF938230910510F482E090E0E091F005C0
:102A2000F091F10530E020E0B0E0A0E0309799F4BB
:102A30002115310509F44AC0281B390B2430310512
:102A4000D8F58A819B816115710589F1FB0193831A
:102A50008283FE0111C04081518102811381481798
:102A60005907E0F04817590799F4109761F012964A
:102A70000C93129713961C933296CF01DF91CF914E
:102A80001F910F9108950093F0051093F105F4CF75
:102A90002115310551F04217530738F0A901DB0128
:102AA0009A01BD01DF01F801C1CFEF01F9CF909389
:102AB000F1058093F005CDCFFE01E20FF31F819366
:102AC00091932250310939832883D7CF2091EE0585
:102AD0003091EF05232B41F4209123013091240103
:102AE0003093EF052093EE052091210130912201D2
:102AF0002115310541F42DB73EB740912501509184
:102B00002601241B350BE091EE05F091EF05E2174D
:102B1000F307A0F42E1B3F0B2817390778F0AC0100
:102B20004E5F5F4F2417350748F04E0F5F1F5093DD
:102B3000EF054093EE05819391939FCFF0E0E0E0A5
:102B40009CCFCF93DF930097E9F0FC01329713827B
:102B50001282A091F005B091F105ED0130E020E086
:102B60001097A1F420813181820F931F2091EE05EF
:102B70003091EF052817390709F061C0F093EF0590
:102B8000E093EE05DF91CF910895EA01CE17DF07BC
:102B9000E8F54A815B819E0141155105B1F7E901D4
:102BA000FB83EA8349915991C40FD51FEC17FD07A8
:102BB00061F4808191810296840F951FE9019983C8
:102BC0008883828193819B838A83F0E0E0E0129680
:102BD0008D919C9113970097B9F52D913C91119788
:102BE000CD010296820F931F2091EE053091EF05E3
:102BF0002817390739F6309751F51092F1051092E0
:102C0000F005B093EF05A093EE05BCCFD383C2834C
:102C100040815181840F951FC817D90761F44E5F19
:102C20005F4F88819981480F591F518340838A8162
:102C30009B81938382832115310509F0B0CFF093F6
:102C4000F105E093F0059ECFFD01DC01C0CF1382BA
:102C50001282D7CFB0E0A0E0E0E3F6E10C94CE130F
:102C60008C01009751F4CB010E9405158C01C8011D
:102C7000CDB7DEB7E0E10C94EA13FC01E60FF71FD5
:102C80009C0122503109E217F30708F49DC0D901D5
:102C9000CD91DC911197C617D70798F0C530D105B3
:102CA00030F3CE0104978617970708F3C61BD70B9E
:102CB0002297C193D1936D937C93CF010E94A1156C
:102CC000D6CF5B01AC1ABD0A4C018C0E9D1EA091A3
:102CD000F005B091F105512C412CF12CE12C10970D
:102CE00031F58091EE059091EF058815990509F071
:102CF0005CC04616570608F058C08091210190919B
:102D00002201009741F48DB79EB740912501509163
:102D10002601841B950BE817F90708F055C0F093BE
:102D2000EF05E093EE05F90171836083A0CF8D91EB
:102D30009C91119712966C90129713967C90139712
:102D4000A815B90559F56C0142E0C40ED11CCA148E
:102D5000DB0420F1AC014A195B09DA0112961597E0
:102D600080F06282738251834083D9016D937C939A
:102D7000E114F10471F0D7011396FC93EE931297CE
:102D800076CF22968C0F9D1FF90191838083F301EA
:102D9000EFCFF093F105E093F00569CF481659069F
:102DA00008F42C017D01D3019ACFCB010E940515B7
:102DB0007C01009749F0AE01B8010E94E716C801F6
:102DC0000E94A115870153CF10E000E050CFFB0116
:102DD000DC0102C001900D9241505040D8F7089597
:102DE000FB01DC0101900D920020E1F70895F894B9
:022DF000FFCF13
:102DF2001020000F00000040404000200020000F83
:102E020000FFFFFFFF00E1000000000000010000E2
:102E1200000000F205800000C18081000000000077
:102E22000000FB0393051C041104620420043E0409
:0C2E32000000000082060E057207710708
:00000001FF
