:100000000C9470030C9498030C9498030C9498032C
:100010000C9498030C9498030C9498030C949803F4
:100020000C9498030C9498030C9455070C94C407F3
:100030000C9498030C9498030C9498030C949803D4
:100040000C9498030C9498030C9498030C949803C4
:100050000C9498030C9498030C9498030C94F60950
:100060000C9498030C9498030C9498030C949803A4
:100070000C9498030C9498030C9498030C94980394
:100080000C94400A0C9498030C9498030C949803D5
:100090000C9498030C9498030C9498030C94980374
:1000A0000C9498030C9498030C949803000000009F
:1000B000003E5B4F5B3E3E6B4F6B3E1C3E7C3E1CEE
:1000C000183C7E3C181C577D571C1C5E7F5E1C0034
:1000D000183C1800FFE7C3E7FF0018241800FFE7EB
:1000E000DBE7FF30483A060E2629792926407F05AE
:1000F0000507407F05253F5A3CE73C5A7F3E1C1CC4
:1001000008081C1C3E7F14227F22145F5F005F5F83
:1001100006097F017F006689956A6060606060946F
:10012000A2FFA29408047E040810207E2010080874
:100130002A1C08081C2A08081E101010100C1E0C7F
:100140001E0C30383E3830060E3E0E060000000011
:100150000000005F00000007000700147F147F14F8
:10016000242A7F2A1223130864623649562050003D
:1001700008070300001C2241000041221C002A1C29
:100180007F1C2A08083E0808008070300008080814
:100190000808000060600020100804023E51494534
:1001A0003E00427F400072494949462141494D3352
:1001B0001814127F1027454545393C4A49493141B9
:1001C000211109073649494936464949291E000087
:1001D00014000000403400000008142241141414DC
:1001E0001414004122140802015909063E415D59C8
:1001F0004E7C1211127C7F494949363E41414122D1
:100200007F4141413E7F494949417F090909013EFA
:10021000414151737F0808087F00417F4100204021
:10022000413F017F081422417F404040407F021C33
:10023000027F7F0408107F3E4141413E7F0909094A
:10024000063E4151215E7F09192946264949493216
:1002500003017F01033F4040403F1F2040201F3FDC
:100260004038403F63140814630304780403615961
:10027000494D43007F4141410204081020004141A3
:10028000417F04020102044040404040000307084F
:100290000020545478407F2844443838444444284B
:1002A000384444287F385454541800087E090218F2
:1002B000A4A49C787F0804047800447D400020407A
:1002C000403D007F1028440000417F40007C0478BE
:1002D00004787C080404783844444438FC18242406
:1002E0001818242418FC7C08040408485454542486
:1002F00004043F44243C4040207C1C2040201C3C03
:100300004030403C44281028444C9090907C4464F9
:10031000544C44000836410000007700000041368C
:10032000080002010204023C2623263C1EA1A16112
:10033000123A4040207A3854545559215555794144
:100340002154547841215554784020545579400C1B
:100350001E527212395555555939545454593955FC
:100360005454580000457C410002457D420001453F
:100370007C40F0292429F0F0282528F07C545545AC
:10038000002054547C547C0A097F4932494949323F
:100390003248484832324A4848303A4141217A3A54
:1003A00042402078009DA0A07D39444444393D401E
:1003B00040403D3C24FF2424487E4943662B2FFCCB
:1003C0002F2BFF0929F620C0887E09032054547979
:1003D000410000447D413048484A32384040227A4A
:1003E000007A0A0A727D0D19317D2629292F2826C7
:1003F0002929292630484D402038080808080808CF
:100400000808382F10C8ACBA2F102834FA00007B27
:10041000000008142A142222142A1408950022002D
:1004200095AA005500AAAA55AA55AA000000FF00E7
:10043000101010FF00141414FF001010FF00FF1024
:1004400010F010F0141414FC001414F700FF000056
:10045000FF00FF1414F404FC141417101F10101FD5
:10046000101F1414141F00101010F0000000001FC3
:10047000101010101F10101010F010000000FF10CE
:100480001010101010101010FF10000000FF1400CA
:1004900000FF00FF00001F10170000FC04F41414FC
:1004A0001710171414F404F40000FF00F7141414C8
:1004B00014141414F700F7141414171410101F1048
:1004C0001F141414F4141010F010F000001F101F6B
:1004D0000000001F14000000FC140000F010F010D9
:1004E00010FF10FF141414FF141010101F00000050
:1004F00000F010FFFFFFFFFFF0F0F0F0F0FFFFFF54
:100500000000000000FFFF0F0F0F0F0F38444438AA
:10051000447C2A2A3E147E02020606027E027E02E5
:1005200063554941633844443C04407E201E200604
:10053000027E020299A5E7A5991C2A492A1C4C7241
:1005400001724C304A4D4D303048784830BC625AC8
:10055000463D3E494949007E0101017E2A2A2A2A58
:100560002A44445F444440514A444040444A514034
:100570000000FF0103E080FF000008086B6B0836F5
:1005800012362436060F090F060000181800000066
:100590001010003040FF0101001F01011E00191D55
:1005A0001712003C3C3C3C0000000000F0F89C8E20
:1005B0008783878E9CF8F00000FEFF03030303038C
:1005C000070EFCF80000FEFF0303030303070EFC05
:1005D000F80000FFFF00000000000000FFFF000027
:1005E000FEFF8383838383C7EE7C380000F8FC0E14
:1005F00007030303070EFCF800003F7FE0C0808084
:10060000C0E07F3FFFFF01010101010101FFFF0089
:1006100000FFFF0C0C0C0C1C3E77E3C100007FFFB9
:10062000C0C0C0C0C0E0703F1F00001F3F70E0C0EE
:10063000C0C0E0703F1F00007FFFC1C1C1C1C1E366
:10064000773E1C00001F3F70E0C0C0C0E0703F1F3D
:10065000000000000001FFFF01000000D5F08D1434
:10066000A1C881CFD9F1AF2000080B00020202001F
:100670000009040000010202000005240010010529
:100680002401010104240206052406000107058156
:100690000310004009040100020A000000070502DF
:1006A0000240000007058302400000040309041211
:1006B000010002EF020140412336800001010203E4
:1006C0000141726475696E6F204C4C430041726445
:1006D00075696E6F204C656F6E6172646F00750B8B
:1006E00011241FBECFEFDAE0DEBFCDBF11E0A0E0E6
:1006F000B1E0E0EAFBE202C005900D92A834B10738
:10070000D9F725E0A8E4B1E001C01D92AE3EB207E2
:10071000E1F713E0C0E7D3E004C02197FE010E9497
:10072000D613CF36D107C9F70E94A80B0C94CE156B
:100730000C940000809159010895E4E8F1E0A0E0F4
:10074000B8E000800EBC8111012C1197A0FDFDCFF7
:100750000192B9F70DB40895FC01809183018823BB
:1007600011F13FB7F89482E08093E9002091F20004
:10077000822F90E01816190614F481E090E0882387
:1007800039F0289844E6409382014091F10040837B
:10079000222339F02091F200211103C02BE620938F
:1007A000E8003FBF08958FEF9FEF08952FB7F894AB
:1007B00083E08093E9009091E800892F807295FF93
:1007C00004C09091F20080E4891B2FBF08958091AE
:1007D0007A0181110DC082E08093760184E08093DC
:1007E0007701109279011092780181E080937A016B
:1007F00086E791E00895CF93DF931F92CDB7DEB7E0
:100800006983DC01ED91FC910280F381E02D41E0F0
:1008100050E0BE016F5F7F4F09950F90DF91CF9140
:10082000089583E08093E9008091F200882319F015
:100830008AE38093E80008950E94D60390E008952B
:10084000CF93DF931F92CDB7DEB7FC0184859585EA
:1008500097FD08C02FEF3FEF358724870F90DF917A
:10086000CF910895CE0101960E94AC03019719F42F
:10087000898190E0F3CF8FEF9FEFF0CF0F931F931D
:10088000CF93DF931F92CDB7DEB78C01FC01848537
:10089000958597FF0BC0CE0101960E94AC0301978E
:1008A00071F4898190E0F80195878487F801848547
:1008B00095850F90DF91CF911F910F9108958FEF44
:1008C0009FEFF1CFFC018485958597FD0BC09FB705
:1008D000F89482E08093E9008091F2009FBF90E05D
:1008E000019608959FB7F89482E08093E900809183
:1008F000F2009FBF90E00895409170015091710106
:1009000020916E0130916F0142175307B4F490911A
:10091000E8009570E1F39091E80092FD19C0809392
:10092000F100809170019091710101968F73992768
:10093000892B19F48EEF8093E800809170019091DB
:1009400071010196909371018093700181E0089587
:1009500080E00895DF92EF92FF920F931F93CF9361
:10096000DF93D82E8A01EB017B01E40EF51ECE1534
:10097000DF0559F0D7FE12C0FE0184910E947C046D
:1009800021968111F4CF0FEF1FEFC801DF91CF91B6
:100990001F910F91FF90EF90DF9008958881EECF27
:1009A0000F931F93CF93DF931F92CDB7DEB782E0F3
:1009B000898342E450E069E676E080E80E94AA0478
:1009C0000E94E703DC0112960D911C91011511059F
:1009D00089F0D801ED91FC910280F381E02DBE01F8
:1009E0006F5F7F4FC801099597FD04C0F80100852E
:1009F0001185ECCF89810F90DF91CF911F910F91DD
:100A00000895615030F02091F100FC01208301969F
:100A1000F8CF289884E6809382010895AF92BF9220
:100A2000CF92DF92EF92FF920F931F93CF93DF93BA
:100A30006C017B018B01040F151FEB015E01AE18E9
:100A4000BF08C017D10759F06991D601ED91FC910B
:100A50000190F081E02DC6010995892B79F7C50138
:100A6000DF91CF911F910F91FF90EF90DF90CF908A
:100A7000BF90AF9008953FB7F89480915501909141
:100A80005601A0915701B091580126B5A89B05C009
:100A90002F3F19F00196A11DB11D3FBFBA2FA92FFD
:100AA000982F8827BC01CD01620F711D811D911DFA
:100AB00042E0660F771F881F991F4A95D1F7089566
:100AC0008F929F92AF92BF92CF92DF92EF92FF925E
:100AD0006B017C010E943B054B015C01C114D104F8
:100AE000E104F104B9F00E943B05681979098A090B
:100AF0009B09683E73408105910580F321E0C21A8D
:100B0000D108E108F10888EE880E83E0981EA11C48
:100B1000B11CE4CFFF90EF90DF90CF90BF90AF90EB
:100B20009F908F9008958F929F92AF92BF92CF9295
:100B3000DF92EF92FF920F931F93CF93DF936C019D
:100B40007B018A0180911801882309F45CC080919F
:100B50008301882309F457C08091750180FF05C087
:100B60008091E00082608093E000E801B12C8AEF80
:100B7000A82E93E0892E2AE3922E209711F4BB2011
:100B8000D9F10E94D60381110AC0AA94AA20D9F1F2
:100B900061E070E080E090E00E946005EECF8C178D
:100BA0001D0611F00CF08C2F9FB7F8948092E9008D
:100BB0002091E80025FD02C09FBFDFCF282F30E045
:100BC000C21BD30BF701815020F041914093F100FB
:100BD000FACFE20EF31EBB2021F09092E800B12C78
:100BE000EBCF8091E80085FDE7CF9092E800BB2431
:100BF000B394209709F3F3CF5D9884E68093740152
:100C0000101611063CF081E090E0F6019383828398
:100C100010E000E0C801DF91CF911F910F91FF908C
:100C2000EF90DF90CF90BF90AF909F908F900895FE
:100C300020914801E0914B01F0914C01CF010296C7
:100C400090934C0180934B01222319F0859194914C
:100C500008958081918108952D9A0895BC0190E0B6
:100C600080E00C9460058FB18095807F669B8860E2
:100C70001C9B8460089580E00C949D03803891054E
:100C8000B8F460347105A0F420E191E061FD94E0D6
:100C900060FD990F62FD9295687F269FD001112417
:100CA000A80FAC57BE4F8C9140FF03C0892B8C938B
:100CB000089590958923FBCFEF92FF920F931F9396
:100CC000CF93DF937C018B01040F111DEB0177FFA4
:100CD00002C0D0E0C0E0C8010134110514F080E486
:100CE00090E0C817D9073CF441E0BE01C7010E945B
:100CF0003E062196F0CFDF91CF911F910F91FF908B
:100D0000EF9008958F929F92AF92BF92CF92DF9211
:100D1000EF92FF920F931F93CF93DF936D3089F083
:100D2000C0906C01D0906D016A30D1F410926B01CB
:100D300010926A0188E0C80ED11CD0926D01C09259
:100D40006C0181E090E0DF91CF911F910F91FF90B6
:100D5000EF90DF90CF90BF90AF909F908F900895CD
:100D600000916A0110916B01E5E06E9FE001112492
:100D7000C455DF4F4801F12CF5E0E12CFF1629F0B6
:100D8000CE010196FE01E490EC01B12CA12C4E2D78
:100D90004170B6016A0D7B1DC4010E943E06E694B7
:100DA000FFEFAF1ABF0A88E0A816B10481F7F394E9
:100DB000EFEF8E1A9E0AF6E0FF12DECF0A5F1F4F9A
:100DC00010936B0100936A01BCCF089590E080E01E
:100DD0000895CF92DF92EF92FF920F931F93CF93DC
:100DE000DF93CDB7DEB762970FB6F894DEBF0FBEC4
:100DF000CDBF8C01CB01F8011182108213821282C7
:100E0000158214824AE09E012F5F3F4F6901B901AC
:100E10000E945311F60101900020E9F731977F01FC
:100E2000EC18FD08F80180819181009729F022815A
:100E300033812E153F0590F4B7016F5F7F4F0E94FD
:100E40000115F801009799F091838083F382E28283
:100E500024813581232B11F4FC011082F801F582E5
:100E6000E482B601808191810E94C7150DC0808106
:100E70009181009711F00E947814F801118210827C
:100E8000158214821382128262960FB6F894DEBF26
:100E90000FBECDBFDF91CF911F910F91FF90EF90CB
:100EA000DF90CF9008950C9483121F920F920FB68B
:100EB0000F9211248F939F938091E1009091E10014
:100EC000937F9093E10083FF0FC01092E90091E0BF
:100ED0009093EB001092EC0092E39093ED0010924F
:100EE000830198E09093F00082FF22C093E09093FA
:100EF000E9009091F200992319F09AE39093E800A9
:100F000090917401992341F09091740191509093C4
:100F10007401911101C05D9A90918201992341F071
:100F200090918201915090938201911101C0289A71
:100F300084FF18C08091E2008E7E81608093E20081
:100F40008091E1008F7E8093E100809175018E7E1B
:100F50008061809375019F918F910F900FBE0F90CC
:100F60001F90189580FFF7CF8091E2008E7E806100
:100F70008093E2008091E1008E7E8093E100809179
:100F800075018E7E8160E5CF1F920F920FB60F9292
:100F90001124CF92DF92EF92FF920F931F932F9322
:100FA0003F934F935F936F937F938F939F93AF93F1
:100FB000BF93EF93FF93CF93DF93CDB7DEB76C97DB
:100FC000DEBFCDBF1092E9008091E80083FF25C00D
:100FD00068E0CE0145960E94010582EF8093E8000B
:100FE0008D8987FF39C09091E80090FFFCCF982F42
:100FF000907609F034C19E894F89588D2F89F88CDD
:10100000911131C0803861F5809173018093F100B6
:101010001092F1008EEF8093E8006C960FB6F89472
:10102000DEBF0FBECDBFDF91CF91FF91EF91BF919A
:10103000AF919F918F917F916F915F914F913F9170
:101040002F911F910F91FF90EF90DF90CF900F9015
:101050000FBE0F901F9018959EEF9093E800C7CF9A
:101060001092F100D5CF913059F48111D3CF413096
:10107000510581F6809173018D7F80937301CACFF2
:10108000933049F48111C6CF4130510519F6809152
:1010900073018260F2CF953041F48091E80080FFC7
:1010A000FCCF20682093E300B5CF963009F0A9C0AB
:1010B0000B8D1C8D22E01092E900109271011092AC
:1010C0007001F2122EC010926F0110926E010E94F8
:1010D000D0041F8299E09983FA8291E09E8390EA7E
:1010E00098879AEF99872091700130917101275F5D
:1010F0003F4F3C832B838D831092E9001092710146
:101100001092700110936F0100936E0149E050E05E
:10111000BE016F5F7F4F80E00E94AA040E94D0044E
:1011200079CF10936F0100936E010E94E703DC01F9
:1011300012960D911C910115110509F451C1D801A8
:10114000ED91FC910480F581E02DBE016B5E7F4F37
:10115000C8010995009709F03EC1F8010085118585
:10116000EACFF3E0FF120EC08F89882309F440C054
:10117000823061F440E860E18DEC96E00E94420B21
:10118000811148CF81E28093EB0047CF813029F471
:1011900040E86BE081EC96E0F1CF833099F70E9454
:1011A000E703DC011296ED90FC908E010F5F1F4F5C
:1011B0006801E114F10479F0D701ED91FC9106800A
:1011C000F781E02DB801C7010995080F111DF7013E
:1011D000E084F184EECFD8011C92F601019000204A
:1011E000E9F73197BF016C197D0940E0C601C6CF10
:1011F0006BEA76E0FB01449150E080E80E94AA048B
:1012000009CF973009F4BECF983021F481E0809364
:10121000F10000CF993009F0FDCE837009F0B2CF14
:10122000E4E2F1E081E031E096E32191222371F0E4
:101230008093E9003093EB00DF0111972C9120930C
:10124000EC009093ED008F5F873079F78EE7809305
:10125000EA001092EA008F8980938301DBCE8B8DA8
:101260009C8D1092E9001092710110927001909380
:101270006F0180936E01898D811192C08E899D8945
:10128000913A49F4813209F07DCF47E050E061E1C5
:1012900071E080E0B3CF913209F074CF833269F40A
:1012A0008F89988DB0E0A0E080930D0190930E019E
:1012B000A0930F01B0931001ADCE803269F48091FC
:1012C000E80082FFFCCF67E081E191E00E94010528
:1012D0008BEF8093E8009ECE823209F09BCE8F89FF
:1012E00080931801EEEFFFE7859194918B3F9C4D21
:1012F00051F1E0E0F8E08091110190911201A0918C
:101300001301B0911401803B9440A105B105F1F4A3
:101310008091180180FD1AC0EE3F8AE0F80789F538
:1013200087E797E7918380838091600080937201C3
:1013300088E19BE00FB6F894A895809360000FBEFB
:101340009093600067CEEEEFFAE0D5CF8081918177
:101350008737974709F05ECEA89580916000886135
:10136000809360008091720180936000EE3F2AE0DC
:10137000F20789F08091FE0A9091FF0A91838083A1
:1013800049CE808191818737980751F29093FF0A67
:101390008093FE0AC5CF1092FF0A1092FE0A3ACE41
:1013A0000E94E703DC0112960D911C9101151105B5
:1013B00009F4E8CED801ED91FC910190F081E02D87
:1013C000BE016B5E7F4FC8010995811123CEF801E4
:1013D00000851185EBCF181619060CF41BCED2CE62
:1013E000F1E0FF12BECE6FEA76E004CF1F920F92BB
:1013F0000FB60F9211242F933F938F939F93AF9328
:10140000BF9380915A0190915B01A0915C01B091D2
:101410005D013091540123E0230F2D3758F50196DB
:10142000A11DB11D2093540180935A0190935B013B
:10143000A0935C01B0935D0180915501909156019C
:10144000A0915701B09158010196A11DB11D809343
:10145000550190935601A0935701B0935801BF9145
:10146000AF919F918F913F912F910F900FBE0F9051
:101470001F90189526E8230F0296A11DB11DD2CF0B
:101480001F920F920FB60F921124CF92DF92EF921C
:10149000FF922F933F934F935F936F937F938F931D
:1014A0009F93AF93BF93CF93DF93EF93FF9380917D
:1014B000500190915101A0915201B0915301892B9B
:1014C0008A2B8B2B09F446C080914F0181110BC0F0
:1014D00088B190E4892788B980914E01882319F05A
:1014E00088B1805888B98091500190915101A091A4
:1014F0005201B0915301181619061A061B069CF4E6
:101500008091500190915101A0915201B0915301ED
:101510000197A109B1098093500190935101A093C3
:101520005201B0935301FF91EF91DF91CF91BF91A1
:10153000AF919F918F917F916F915F914F913F916B
:101540002F91FF90EF90DF90CF900F900FBE0F90F4
:101550001F9018950E941806811520E8920761F4E3
:10156000809171008D7F8093710010929100469858
:10157000479810924D01D7CF21E020934D01813043
:1015800020E8920731F410924C0110924B010E9416
:10159000180697FD05C020914A01222309F454C082
:1015A00020914901211150C021E020934E01EC010E
:1015B000DF77209709F04BC081E080934F01469878
:1015C0003FE9C32E3FE0D32EE12CF12CCAEFD0E04F
:1015D000E091E205F091E3050995811103C081E0F6
:1015E00080934F0180914E01882329F080914F0113
:1015F000882309F43FC047980E9418060097F1F12C
:101600009C01DE010E942413DC01CB0129E0B59589
:10161000A795979587952A95D1F7109290002AE083
:1016200020939100D0929900C0929800809350012D
:1016300090935101A0935201B09353018091710096
:101640008260809371006FCF10924E01B0CF9E01E7
:1016500050E040E060E472E48FE090E00E94991274
:1016600069017A0181E0C81AD108E108F1081092F5
:101670004F01AECF4699BFCF479ABECF8FEF9FEFB6
:10168000DC01CBCFEF92FF920F931F93CF93DF93A9
:10169000F82E192FE62E042F81E0860F880F0E9466
:1016A0007C0483E00E947C04CF2DD12FEC0EFD2E14
:1016B000F11CCE15DF05B9F007FF13C0FE018491C0
:1016C0000E947C04182F80E00E947C0481232196D4
:1016D0008111EFCFDF91CF911F910F91FF90EF908C
:1016E00008958881EDCF81E0F5CFE4E8F5E013823D
:1016F000128288EE93E0A0E0B0E084839583A68315
:10170000B7838EE291E0918380838FEF9FEF95877F
:101710008487E6EEF5E01382128280E491E0918303
:1017200080838AE993E09093E3058093E20580E06B
:1017300090E89093E1058093E00546983E9A47989B
:101740003F9A8CE790E09093E5058093E405089537
:10175000CF93DF93CDB7DEB72B970FB6F894DEBFEC
:101760000FBECDBF789484B5826084BD84B581609E
:1017700084BD85B5826085BD85B5816085BD80915C
:101780006E00816080936E001092810080918100D4
:1017900082608093810080918100816080938100CC
:1017A00080918000816080938000809191008260B0
:1017B000809391008091910081608093910080914D
:1017C00090008160809390008091C100846080933C
:1017D000C1008091C10082608093C1008091C100EE
:1017E00081608093C1008091C30081608093C300B9
:1017F0008091C00082608093C0008091C2008160AF
:101800008093C20080917A00846080937A008091F6
:101810007A00826080937A0080917A008160809360
:101820007A0080917A00806880937A001092830118
:1018300010927301109275018091D700816080939E
:10184000D70080EA8093D80089B5806189BD89B5C9
:10185000826089BD09B400FEFDCF61E070E080E0E8
:1018600090E00E9460058091D8008F7C8061809319
:10187000D8008091E000807F8093E0008091E100BB
:101880008E7E8093E1008DE08093E200559A209A4D
:1018900081EC80937C0085B1806F85B984B1877EAF
:1018A00084B984B1876E84B95E9A5F988AB1806D7D
:1018B0008AB9769A6E9881B3806F81BB899880B31C
:1018C0008D7080BB80E58CBD81E08DBD85E090E0B2
:1018D0000E942E065F9A85E090E00E942E065E9898
:1018E0005C98ECE5F6E084918EBD00000DB407FE37
:1018F000FDCF319626E0E936F207A9F75C9A81E838
:1019000080936400809165008160809365000E94EF
:101910003B060E94330687FF15C05C9885EA8EBDA2
:1019200000000DB407FEFDCF5C9A2E982F982D98DD
:101930008091640080628093640081E083BF889519
:1019400013BEFCCF0E94330682FF48C02D980E9430
:10195000330684788438E1F40E942C0688EC90E009
:101960000E942E062F9882E090E00E9483128F3F03
:1019700029F06FEF82E090E00E948B1284EF91E0FB
:101980000E942E062F9A0E94330684788438D9F359
:101990000E94330684718431E1F40E942C0688ECA5
:1019A00090E00E942E062E9882E090E00E94831222
:1019B000882329F060E082E090E00E948B1284EF9F
:1019C00091E00E942E062E9A0E9433068471843183
:1019D000D9F388EC90E00E942E06B4CF0E942C062A
:1019E00082E090E00E945307882309F441C03E9AA8
:1019F0003F9A81E08093590181E090E00E94530773
:101A0000482F4470742E81FF0FC041112E9801EFB2
:101A10001FEFE8E0EE2EF12C0E94330686FF2DC06A
:101A20002E9A2F9A0E942C0682E390E00E942E06A6
:101A30000E9433068111F8CF82E4809300018FB7B2
:101A4000F89440915A0150915B0160915C01709152
:101A50005D018FBF80916001882309F4CEC0109290
:101A6000600140E050E0452B51F30E940000E7CFB9
:101A7000109259013E983F98BFCF772029F004304B
:101A8000110511F42E9A2F9881E00E949D03980170
:101A900017FF04C022273327201B310B2770332761
:101AA000C80117FD079673E0959587957A95E1F73C
:101AB00017FF05C00197F701E21BF30B9F01AC0173
:101AC0005695542F4427579547954C575E4FB12C48
:101AD000A12C2701421A530A8E3FFFEF9F0709F4FA
:101AE0003AC06A0164E9C60ED11CDA0170E060E018
:101AF000F501E455FA4F4F018F3F980781F0F4014B
:101B0000E60FF71FE491022E01C0EE0F0A94EAF7E8
:101B10005496FC915497EF2B5496EC9354972115BF
:101B2000310581F0F401E60FF71FE491F0E01F01A9
:101B3000042C02C0359427940A94E2F7F6016080E1
:101B4000262820826F5F7F4FFFEFCF1ADF0A1196A2
:101B50006835710589F6019668E5A60EB11C4058F6
:101B60005F4FE0EBAE16B10409F0B6CF0E943B0622
:101B70008FE090E00E942E060F5F1F4F0931110584
:101B800009F04ACF772011F02F9A2D9880E991E043
:101B90000E942E060E942C0681E090E00E945307CE
:101BA00080FF42CF8AE090E00E9453079FEF980F9A
:101BB0009E3F08F039CF22E330E030936B01209351
:101BC0006A0128E330E030936D0120936C010BE053
:101BD00010E0682F86EE95E00E948206C8010E9400
:101BE00053070F5F1F4F0131110599F70E943B0604
:101BF00088EE93E00E942E0617CF90916101F42F9A
:101C0000F91B9F2F20910001F21748F49F5F921754
:101C100008F027CF21E023BF889513BE22CF91E0A3
:101C2000909360014093610120915E0130915F01CA
:101C30002F5F3F4F30935F0120935E01E4E8F1E0B6
:101C400081118FEF00248193819381938193039479
:101C5000D1F710926D0110926C0110926B011092ED
:101C60006A010E94330687FF0DC080910B0190919D
:101C70000C01883091050CF401C1049790930C017C
:101C800080930B010E94330684FF0DC080910B01ED
:101C900090910C01893391050CF0F7C00496909354
:101CA0000C0180930B018091090190910A0183300E
:101CB00091050CF0F1C083E090E090930A018093CD
:101CC00009018091660190916701A0916801B0912E
:101CD0006901B0588093660190936701A0936801F1
:101CE000B09369012091070130910801C090030170
:101CF000D0900401E0900501F09006012E373105E7
:101D00000CF4D0C080E490E0909308018093070128
:101D1000E0E2F0E0F0930A01E0930901F7FAF094B1
:101D2000F7F8F094C0920301D0920401E09205010B
:101D3000F09206010E94FB1010926601109267015A
:101D4000109268011092690180916401909165017F
:101D500001969093650180936401809107019091B1
:101D600008010091030110910401209105013091B7
:101D7000060120900B0130900C01181619060CF486
:101D8000D6C080E490E0909308018093070140E280
:101D900050E050930A014093090130580093030129
:101DA0001093040120930501309306018091620194
:101DB0009091630101969093630180936201609119
:101DC000070170910801072E000C880B990B0E94E7
:101DD0008A11209103013091040140910501509135
:101DE00006010E9434130E94A0132B0178876F8391
:101DF00070930801609307016091090170910A01D5
:101E0000072E000C880B990B0E948A112091660105
:101E10003091670140916801509169010E9434132B
:101E20000E94A0134B017A87698770930A0160931F
:101E3000090180910101909102019C012550310915
:101E4000821693060CF0ABC0029790930201809328
:101E5000010110E000E0680153E0C50ED11C7801DB
:101E6000CE14DF0409F4A6C041E0B70180E490E09D
:101E70000E943E066FEFE61AF60AF2CFE7E0F0E0C6
:101E8000F0930C01E0930B01FDCE49E350E0509339
:101E90000C0140930B0107CFCE970CF423CF8DE3B9
:101EA00090E00BCF8091E4059091E5050497281709
:101EB00039070CF452CF2091010130910201609159
:101EC000090170910A01A9014A5051096417750767
:101ED0000CF443CF4C5E5F4F461757070CF43DCFD1
:101EE0009093080180930701F7FAF094F7F8F094C3
:101EF000C0920301D0920401E0920501F092060124
:101F0000621B730B072E000C880B990B0E948A1121
:101F100020E030E040E45FE30E94C5116093660179
:101F200070936701809368019093690116CF0997B8
:101F30000CF045CF6091090170910A01C1010A9727
:101F4000681779070CF43BCF4496861797070CF473
:101F500036CF88E090E090930801809307013058D5
:101F600000930301109304012093050130930601AF
:101F700062197309072E000C880B990B0E948A11B5
:101F800020E030E040E45FE30E94C5116093660109
:101F900070936701809368019093690110CF9C0151
:101FA0002B5F3F4F49855A85241735070CF051CFD9
:101FB00002964BCF085F1F4F0034110509F04BCF3D
:101FC000B4016350710947E0C2010E945C06F12C24
:101FD000E12C66246394712C03E010E09AEFA92EA3
:101FE000BB24BA942EEF422E55245A94EFEFEE1AEA
:101FF000FE0AF2E06F0E711C460C571C802F880FF2
:102000008F5F8B87482FC984DA84C01AD10AB60142
:102010008F8198858E0D9F1D0E945C0689849A840D
:102020008E189F08462DB4018F819885800F911FCF
:102030000E945C064B85B6018F8198858E199F0999
:102040000E945C06462DB4018F819885801B910B00
:102050000E945C06E016F10694F181010750110917
:102060004FE0B80183E090E00E945C064FE0B801C9
:1020700084E090E00E945C064FE0B80185E090E0CB
:102080000E945C06E0900101F090020127E0E21A54
:10209000F1080091E4051091E505680141E0C41ADA
:1020A000D1080E5F1F4FC016D106B1F04FE0B70147
:1020B000C6010E945C065FEFC51AD50AF4CF8FEF08
:1020C0004816580609F492CF0150110992E0A90E62
:1020D000B11C4A0C5B1C8ACF88E290E090936B01A4
:1020E00080936A0110926D0110926C0160916401FD
:1020F00070916501CE0101960E94E9064D815E81D5
:1021000069817A8186EE95E00E940E0589819A8127
:10211000009711F00E947814E4E5F0E0F0936B0171
:10212000E0936A0110926D0110926C01609162015E
:1021300070916301CE0101960E94E9064D815E8196
:1021400069817A8186EE95E00E940E0589819A81E7
:10215000009711F00E9478140E943B0682CC8F9267
:102160009F92AF92BF92CF92DF92EF92FF92CF9366
:10217000DF93EC01688179818A819B81611571050A
:102180008105910521F464E279ED8BE597E02DE17D
:1021900033EF41E050E00E94991249015A019B013E
:1021A000AC01A7EAB1E40E94B8126B017C01ACEE6D
:1021B000B4EFA50194010E94C612C60ED71EE81EF8
:1021C000F91EF7FE06C081E0C81AD108E10880E8D0
:1021D000F80AC882D982EA82FB82C701B6019F77DA
:1021E000DF91CF91FF90EF90DF90CF90BF90AF90B5
:1021F0009F908F9008958F929F92AF92BF92CF92AF
:10220000DF92EF92FF926091190170911A01809113
:102210001B0190911C01611571058105910521F447
:1022200064E279ED8BE597E02DE133EF41E050E09A
:102230000E94991249015A019B01AC01A7EAB1E43D
:102240000E94B8126B017C01ACEEB4EFA5019401C1
:102250000E94C612C60ED71EE81EF91EF7FE06C063
:1022600081E0C81AD108E10880E8F80AC092190193
:10227000D0921A01E0921B01F0921C01C701B60135
:102280009F77FF90EF90DF90CF90BF90AF909F909F
:102290008F9008956093190170931A0180931B0128
:1022A00090931C010895BB274A3031F4992322F4FE
:1022B000BDE2909581959F4F0C945F11BB27FB0168
:1022C0005527AA27880F991FAA1FA41710F0A41B2F
:1022D00083955051B9F7A05DAA3308F0A95DA19389
:1022E000009779F7B111B1931192CB010C94781149
:1022F000DC01FC01672F71917723E1F7329704C06D
:102300007C916D9370836291AE17BF07C8F30895F7
:10231000E89409C097FB3EF490958095709561957F
:102320007F4F8F4F9F4F9923A9F0F92F96E9BB2735
:102330009395F695879577956795B795F111F8CFB1
:10234000FAF4BB0F11F460FF1BC06F5F7F4F8F4F1C
:102350009F4F16C0882311F096E911C0772321F012
:102360009EE8872F762F05C0662371F096E8862FAA
:1023700070E060E02AF09A95660F771F881FDAF701
:10238000880F9695879597F908950E94D8110C9417
:1023900049120E943B1238F00E94421220F095230D
:1023A00011F00C9432120C94381211240C947D12FA
:1023B0000E945A1270F3959FC1F3950F50E0551F7C
:1023C000629FF001729FBB27F00DB11D639FAA278A
:1023D000F00DB11DAA1F649F6627B00DA11D661FD9
:1023E000829F2227B00DA11D621F739FB00DA11DFA
:1023F000621F839FA00D611D221F749F3327A00DB4
:10240000611D231F849F600D211D822F762F6A2F4F
:1024100011249F5750409AF0F1F088234AF0EE0FB4
:10242000FF1FBB1F661F771F881F91505040A9F7E1
:102430009E3F510580F00C9432120C947D125F3F48
:10244000E4F3983ED4F3869577956795B795F7951D
:10245000E7959F5FC1F7FE2B880F911D9695879595
:1024600097F9089597F99F6780E870E060E0089514
:102470009FEF80EC089500240A941616170618069C
:102480000906089500240A94121613061406050678
:102490000895092E0394000C11F4882352F0BB0F09
:1024A00040F4BF2B11F460FF04C06F5F7F4F8F4F6C
:1024B0009F4F089557FD9058440F551F59F05F3FA7
:1024C00071F04795880F97FB991F61F09F3F79F056
:1024D00087950895121613061406551FF2CF4695D8
:1024E000F1DF08C0161617061806991FF1CF86955A
:1024F0007105610508940895E894BB27662777273E
:10250000CB0197F90895F999FECF92BD81BDF89A54
:10251000992780B50895262FF999FECF1FBA92BD4D
:1025200081BD20BD0FB6F894FA9AF99A0FBE0196B4
:102530000895052E97FB1EF400940E94B01257FDDB
:1025400007D00E94021307FC03D04EF40C94B01283
:1025500050954095309521953F4F4F4F5F4F0895CF
:1025600090958095709561957F4F8F4F9F4F0895FF
:102570000E942413A59F900DB49F900DA49F800DE1
:10258000911D11240895B7FF0C94B8120E94B8123F
:10259000821B930B08952F923F924F925F926F92FE
:1025A0007F928F929F92AF92BF92CF92DF92EF92E3
:1025B000FF920F931F93CF93DF93CDB7DEB7CA1B64
:1025C000DB0B0FB6F894DEBF0FBECDBF09942A888F
:1025D000398848885F846E847D848C849B84AA8437
:1025E000B984C884DF80EE80FD800C811B81AA81C4
:1025F000B981CE0FD11D0FB6F894DEBF0FBECDBF8F
:10260000ED010895A1E21A2EAA1BBB1BFD010DC00E
:10261000AA1FBB1FEE1FFF1FA217B307E407F50792
:1026200020F0A21BB30BE40BF50B661F771F881F6E
:10263000991F1A9469F760957095809590959B0104
:10264000AC01BD01CF010895A29FB001B39FC001AD
:10265000A39F700D811D1124911DB29F700D811DCE
:102660001124911D08955058BB27AA270E944B138F
:102670000C9449120E943B1238F00E94421220F042
:1026800039F49F3F19F426F40C9438120EF4E095B7
:10269000E7FB0C943212E92F0E945A1258F3BA1732
:1026A000620773078407950720F079F4A6F50C9468
:1026B0007C120EF4E0950B2EBA2FA02D0B01B90160
:1026C00090010C01CA01A0011124FF27591B99F0A8
:1026D000593F50F4503E68F11A16F040A22F232FB4
:1026E000342F4427585FF3CF469537952795A79504
:1026F000F0405395C9F77EF41F16BA0B620B730BAB
:10270000840BBAF09150A1F0FF0FBB1F661F771F1B
:10271000881FC2F70EC0BA0F621F731F841F48F4D0
:10272000879577956795B795F7959E3F08F0B0CF59
:102730009395880F08F09927EE0F97958795089540
:102740000E94A7136894B1110C947D1208950E9401
:10275000621288F09F5798F0B92F9927B751B0F0BF
:10276000E1F0660F771F881F991F1AF0BA95C9F715
:1027700014C0B13091F00E947C12B1E008950C9425
:102780007C12672F782F8827B85F39F0B93FCCF3D8
:10279000869577956795B395D9F73EF49095809592
:1027A000709561957F4F8F4F9F4F0895EE0FFF1FDC
:1027B0000590F491E02D09940F931F93CF93DF932D
:1027C0008230910510F482E090E0E091EC05F09108
:1027D000ED0530E020E0B0E0A0E0309799F421155D
:1027E000310509F44AC0281B390B24303105D8F5CE
:1027F0008A819B816115710589F1FB019383828335
:10280000FE0111C04081518102811381481759078F
:10281000E0F04817590799F4109761F012960C935D
:10282000129713961C933296CF01DF91CF911F918F
:102830000F9108950093EC051093ED05F4CF211549
:10284000310551F04217530738F0A901DB019A0115
:10285000BD01DF01F801C1CFEF01F9CF9093ED0584
:102860008093EC05CDCFFE01E20FF31F819391938E
:102870002250310939832883D7CF2091EA0530913E
:10288000EB05232B41F420911F013091200130935F
:10289000EB052093EA0520911D0130911E012115C1
:1028A000310541F42DB73EB74091210150912201ED
:1028B000241B350BE091EA05F091EB05E217F307D5
:1028C000A0F42E1B3F0B2817390778F0AC014E5FA0
:1028D0005F4F2417350748F04E0F5F1F5093EB05ED
:1028E0004093EA05819391939FCFF0E0E0E09CCF85
:1028F000CF93DF930097E9F0FC01329713821282A5
:10290000A091EC05B091ED05ED0130E020E01097CD
:10291000A1F420813181820F931F2091EA0530912B
:10292000EB052817390709F061C0F093EB05E09338
:10293000EA05DF91CF910895EA01CE17DF07E8F5A8
:102940004A815B819E0141155105B1F7E901FB8385
:10295000EA8349915991C40FD51FEC17FD0761F423
:10296000808191810296840F951FE9019983888364
:10297000828193819B838A83F0E0E0E012968D91BF
:102980009C9113970097B9F52D913C911197CD012A
:102990000296820F931F2091EA053091EB052817CC
:1029A000390739F6309751F51092ED051092EC0584
:1029B000B093EB05A093EA05BCCFD383C2834081DB
:1029C0005181840F951FC817D90761F44E5F5F4F7F
:1029D00088819981480F591F518340838A819B8147
:1029E000938382832115310509F0B0CFF093ED0573
:1029F000E093EC059ECFFD01DC01C0CF1382128273
:102A0000D7CFB0E0A0E0E7E0F5E10C94CD128C0167
:102A1000009751F4CB010E94DC138C01C801CDB7A3
:102A2000DEB7E0E10C94E912FC01E60FF71F9C0110
:102A300022503109E217F30708F49DC0D901CD9166
:102A4000DC911197C617D70798F0C530D10530F340
:102A5000CE0104978617970708F3C61BD70B22975A
:102A6000C193D1936D937C93CF010E947814D6CFFC
:102A70005B01AC1ABD0A4C018C0E9D1EA091EC05A9
:102A8000B091ED05512C412CF12CE12C109731F532
:102A90008091EA059091EB058815990509F05CC0D5
:102AA0004616570608F058C080911D0190911E01EE
:102AB000009741F48DB79EB74091210150912201BA
:102AC000841B950BE817F90708F055C0F093EB0548
:102AD000E093EA05F90171836083A0CF8D919C9109
:102AE000119712966C90129713967C901397A815D5
:102AF000B90559F56C0142E0C40ED11CCA14DB04BF
:102B000020F1AC014A195B09DA011296159780F0A1
:102B10006282738251834083D9016D937C93E11467
:102B2000F10471F0D7011396FC93EE93129776CFD0
:102B300022968C0F9D1FF90191838083F301EFCFC3
:102B4000F093ED05E093EC0569CF4816590608F4BB
:102B50002C017D01D3019ACFCB010E94DC137C01B3
:102B6000009749F0AE01B8010E94BE15C8010E944D
:102B70007814870153CF10E000E050CFFB01DC0157
:102B800002C001900D9241505040D8F70895FB01CA
:102B9000DC0101900D920020E1F70895F894FFCF39
:102BA00010200000000040400020002000FFFFFF38
:102BB000FF00E1000000000000010000000000EE46
:102BC00005800000C1808100000000000000FB03C0
:102BD00093051C041104620420043E04000000005C
:082BE00082060E05E606E5067B
:00000001FF
