:100000000C9470030C9498030C9498030C9498032C
:100010000C9498030C9498030C9498030C949803F4
:100020000C9498030C9498030C94EB060C945A07C8
:100030000C9498030C9498030C9498030C949803D4
:100040000C9498030C9498030C9498030C949803C4
:100050000C9498030C9498030C9498030C948C09BA
:100060000C9498030C9498030C9498030C949803A4
:100070000C9498030C9498030C9498030C94980394
:100080000C94D6090C9498030C9498030C94980340
:100090000C9498030C9498030C9498030C94980374
:1000A0000C9498030C9498030C949803000000009F
:1000B000003E5B4F5B3E3E6B4F6B3E1C3E7C3E1CEE
:1000C000183C7E3C181C577D571C1C5E7F5E1C0034
:1000D000183C1800FFE7C3E7FF0018241800FFE7EB
:1000E000DBE7FF30483A060E2629792926407F05AE
:1000F0000507407F05253F5A3CE73C5A7F3E1C1CC4
:1001000008081C1C3E7F14227F22145F5F005F5F83
:1001100006097F017F006689956A6060606060946F
:10012000A2FFA29408047E040810207E2010080874
:100130002A1C08081C2A08081E101010100C1E0C7F
:100140001E0C30383E3830060E3E0E060000000011
:100150000000005F00000007000700147F147F14F8
:10016000242A7F2A1223130864623649562050003D
:1001700008070300001C2241000041221C002A1C29
:100180007F1C2A08083E0808008070300008080814
:100190000808000060600020100804023E51494534
:1001A0003E00427F400072494949462141494D3352
:1001B0001814127F1027454545393C4A49493141B9
:1001C000211109073649494936464949291E000087
:1001D00014000000403400000008142241141414DC
:1001E0001414004122140802015909063E415D59C8
:1001F0004E7C1211127C7F494949363E41414122D1
:100200007F4141413E7F494949417F090909013EFA
:10021000414151737F0808087F00417F4100204021
:10022000413F017F081422417F404040407F021C33
:10023000027F7F0408107F3E4141413E7F0909094A
:10024000063E4151215E7F09192946264949493216
:1002500003017F01033F4040403F1F2040201F3FDC
:100260004038403F63140814630304780403615961
:10027000494D43007F4141410204081020004141A3
:10028000417F04020102044040404040000307084F
:100290000020545478407F2844443838444444284B
:1002A000384444287F385454541800087E090218F2
:1002B000A4A49C787F0804047800447D400020407A
:1002C000403D007F1028440000417F40007C0478BE
:1002D00004787C080404783844444438FC18242406
:1002E0001818242418FC7C08040408485454542486
:1002F00004043F44243C4040207C1C2040201C3C03
:100300004030403C44281028444C9090907C4464F9
:10031000544C44000836410000007700000041368C
:10032000080002010204023C2623263C1EA1A16112
:10033000123A4040207A3854545559215555794144
:100340002154547841215554784020545579400C1B
:100350001E527212395555555939545454593955FC
:100360005454580000457C410002457D420001453F
:100370007C40F0292429F0F0282528F07C545545AC
:10038000002054547C547C0A097F4932494949323F
:100390003248484832324A4848303A4141217A3A54
:1003A00042402078009DA0A07D39444444393D401E
:1003B00040403D3C24FF2424487E4943662B2FFCCB
:1003C0002F2BFF0929F620C0887E09032054547979
:1003D000410000447D413048484A32384040227A4A
:1003E000007A0A0A727D0D19317D2629292F2826C7
:1003F0002929292630484D402038080808080808CF
:100400000808382F10C8ACBA2F102834FA00007B27
:10041000000008142A142222142A1408950022002D
:1004200095AA005500AAAA55AA55AA000000FF00E7
:10043000101010FF00141414FF001010FF00FF1024
:1004400010F010F0141414FC001414F700FF000056
:10045000FF00FF1414F404FC141417101F10101FD5
:10046000101F1414141F00101010F0000000001FC3
:10047000101010101F10101010F010000000FF10CE
:100480001010101010101010FF10000000FF1400CA
:1004900000FF00FF00001F10170000FC04F41414FC
:1004A0001710171414F404F40000FF00F7141414C8
:1004B00014141414F700F7141414171410101F1048
:1004C0001F141414F4141010F010F000001F101F6B
:1004D0000000001F14000000FC140000F010F010D9
:1004E00010FF10FF141414FF141010101F00000050
:1004F00000F010FFFFFFFFFFF0F0F0F0F0FFFFFF54
:100500000000000000FFFF0F0F0F0F0F38444438AA
:10051000447C2A2A3E147E02020606027E027E02E5
:1005200063554941633844443C04407E201E200604
:10053000027E020299A5E7A5991C2A492A1C4C7241
:1005400001724C304A4D4D303048784830BC625AC8
:10055000463D3E494949007E0101017E2A2A2A2A58
:100560002A44445F444440514A444040444A514034
:100570000000FF0103E080FF000008086B6B0836F5
:1005800012362436060F090F060000181800000066
:100590001010003040FF0101001F01011E00191D55
:1005A0001712003C3C3C3C0000000000F0F89C8E20
:1005B0008783878E9CF8F00000FEFF03030303038C
:1005C000070EFCF80000FEFF0303030303070EFC05
:1005D000F80000FFFF00000000000000FFFF000027
:1005E000FEFF8383838383C7EE7C380000F8FC0E14
:1005F00007030303070EFCF800003F7FE0C0808084
:10060000C0E07F3FFFFF01010101010101FFFF0089
:1006100000FFFF0C0C0C0C1C3E77E3C100007FFFB9
:10062000C0C0C0C0C0E0703F1F00001F3F70E0C0EE
:10063000C0C0E0703F1F00007FFFC1C1C1C1C1E366
:10064000773E1C00001F3F70E0C0C0C0E0703F1F3D
:10065000000000000001FFFF01000000D5F08D1434
:10066000A1C881CFD9F1AF2000080B00020202001F
:100670000009040000010202000005240010010529
:100680002401010104240206052406000107058156
:100690000310004009040100020A000000070502DF
:1006A0000240000007058302400000040309041211
:1006B000010002EF020140412336800001010203E4
:1006C0000141726475696E6F204C4C430041726445
:1006D00075696E6F204C656F6E6172646F000B0BF5
:1006E00011241FBECFEFDAE0DEBFCDBF11E0A0E0E6
:1006F000B1E0E6E2F4E202C005900D92A034B10749
:10070000D9F725E0A0E4B1E001C01D92AC3DB207ED
:10071000E1F713E0C0E7D3E004C02197FE010E9497
:100720000B12CF36D107C9F70E943E0B0C94111261
:100730000C940000809151010895E6E7F1E0A0E0FB
:10074000B8E000800EBC8111012C1197A0FDFDCFF7
:100750000192B9F70DB40895FC01809175018823C9
:1007600011F13FB7F89482E08093E9002091F20004
:10077000822F90E01816190614F481E090E0882387
:1007800039F0289844E6409374014091F100408389
:10079000222339F02091F200211103C02BE620938F
:1007A000E8003FBF08958FEF9FEF08952FB7F894AB
:1007B00083E08093E9009091E800892F807295FF93
:1007C00004C09091F20080E4891B2FBF08958091AE
:1007D0006C0181110DC082E08093680184E08093F8
:1007E000690110926B0110926A0181E080936C01A3
:1007F00088E691E00895CF93DF931F92CDB7DEB7DF
:100800006983DC01ED91FC910280F381E02D41E0F0
:1008100050E0BE016F5F7F4F09950F90DF91CF9140
:10082000089583E08093E9008091F200882319F015
:100830008AE38093E80008950E94D60390E008952B
:10084000CF93DF931F92CDB7DEB7FC0184859585EA
:1008500097FD08C02FEF3FEF358724870F90DF917A
:10086000CF910895CE0101960E94AC03019719F42F
:10087000898190E0F3CF8FEF9FEFF0CF0F931F931D
:10088000CF93DF931F92CDB7DEB78C01FC01848537
:10089000958597FF0BC0CE0101960E94AC0301978E
:1008A00071F4898190E0F80195878487F801848547
:1008B00095850F90DF91CF911F910F9108958FEF44
:1008C0009FEFF1CFFC018485958597FD0BC09FB705
:1008D000F89482E08093E9008091F2009FBF90E05D
:1008E000019608959FB7F89482E08093E900809183
:1008F000F2009FBF90E00895409162015091630122
:10090000209160013091610142175307B4F4909136
:10091000E8009570E1F39091E80092FD19C0809392
:10092000F100809162019091630101968F73992784
:10093000892B19F48EEF8093E800809162019091E9
:1009400063010196909363018093620181E00895B1
:1009500080E00895DF92EF92FF920F931F93CF9361
:10096000DF93D82E8A01EB017B01E40EF51ECE1534
:10097000DF0559F0D7FE12C0FE0184910E947C046D
:1009800021968111F4CF0FEF1FEFC801DF91CF91B6
:100990001F910F91FF90EF90DF9008958881EECF27
:1009A0000F931F93CF93DF931F92CDB7DEB782E0F3
:1009B000898342E450E069E676E080E80E94AA0478
:1009C0000E94E703DC0112960D911C91011511059F
:1009D00089F0D801ED91FC910280F381E02DBE01F8
:1009E0006F5F7F4FC801099597FD04C0F80100852E
:1009F0001185ECCF89810F90DF91CF911F910F91DD
:100A00000895615030F02091F100FC01208301969F
:100A1000F8CF289884E6809374010895AF92BF922E
:100A2000CF92DF92EF92FF920F931F93CF93DF93BA
:100A30006C017B018B01040F151FEB015E01AE18E9
:100A4000BF08C017D10759F06991D601ED91FC910B
:100A50000190F081E02DC6010995892B79F7C50138
:100A6000DF91CF911F910F91FF90EF90DF90CF908A
:100A7000BF90AF9008953FB7F89480914D01909149
:100A80004E01A0914F01B091500126B5A89B05C021
:100A90002F3F19F00196A11DB11D3FBFBA2FA92FFD
:100AA000982F8827BC01CD01620F711D811D911DFA
:100AB00042E0660F771F881F991F4A95D1F7089566
:100AC0008F929F92AF92BF92CF92DF92EF92FF925E
:100AD0006B017C010E943B054B015C01C114D104F8
:100AE000E104F104B9F00E943B05681979098A090B
:100AF0009B09683E73408105910580F321E0C21A8D
:100B0000D108E108F10888EE880E83E0981EA11C48
:100B1000B11CE4CFFF90EF90DF90CF90BF90AF90EB
:100B20009F908F9008958F929F92AF92BF92CF9295
:100B3000DF92EF92FF920F931F93CF93DF936C019D
:100B40007B018A0180911A01882309F45CC080919D
:100B50007501882309F457C08091670180FF05C0A3
:100B60008091E00082608093E000E801B12C8AEF80
:100B7000A82E93E0892E2AE3922E209711F4BB2011
:100B8000D9F10E94D60381110AC0AA94AA20D9F1F2
:100B900061E070E080E090E00E946005EECF8C178D
:100BA0001D0611F00CF08C2F9FB7F8948092E9008D
:100BB0002091E80025FD02C09FBFDFCF282F30E045
:100BC000C21BD30BF701815020F041914093F100FB
:100BD000FACFE20EF31EBB2021F09092E800B12C78
:100BE000EBCF8091E80085FDE7CF9092E800BB2431
:100BF000B394209709F3F3CF5D9884E68093660160
:100C0000101611063CF081E090E0F6019383828398
:100C100010E000E0C801DF91CF911F910F91FF908C
:100C2000EF90DF90CF90BF90AF909F908F900895FE
:100C300020914001E0914301F0914401CF010296DF
:100C40009093440180934301222319F0859194915C
:100C500008958081918108952D9A0895BC0190E0B6
:100C600080E00C9460058FB18095807F669B8860E2
:100C70001C9B8460089580E00C949D03803891054E
:100C8000B8F460347105A0F420E191E061FD94E0D6
:100C900060FD990F62FD9295687F269FD001112417
:100CA000A80FAA58BE4F8C9140FF03C0892B8C938C
:100CB000089590958923FBCFEF92FF920F931F9396
:100CC000CF93DF937C018B01040F111DEB0177FFA4
:100CD00002C0D0E0C0E0C8010134110514F080E486
:100CE00090E0C817D9073CF441E0BE01C7010E945B
:100CF0003E062196F0CFDF91CF911F910F91FF908B
:100D0000EF9008958F929F92AF92BF92CF92DF9211
:100D1000EF92FF920F931F93CF93DF936D3089F083
:100D2000C0905E01D0905F016A30D1F410925D01F5
:100D300010925C0188E0C80ED11CD0925F01C09275
:100D40005E0181E090E0DF91CF911F910F91FF90C4
:100D5000EF90DF90CF90BF90AF909F908F900895CD
:100D600000915C0110915D01E5E06E9FE0011124AE
:100D7000C455DF4F4801F12CF5E0E12CFF1629F0B6
:100D8000CE010196FE01E490EC01B12CA12C4E2D78
:100D90004170B6016A0D7B1DC4010E943E06E694B7
:100DA000FFEFAF1ABF0A88E0A816B10481F7F394E9
:100DB000EFEF8E1A9E0AF6E0FF12DECF0A5F1F4F9A
:100DC00010935D0100935C01BCCF089590E080E03A
:100DD00008950C9407101F920F920FB60F921124D2
:100DE0008F939F938091E1009091E100937F909386
:100DF000E10083FF0FC01092E90091E09093EB00B7
:100E00001092EC0092E39093ED001092750198E03F
:100E10009093F00082FF22C093E09093E9009091BC
:100E2000F200992319F09AE39093E80090916601FB
:100E3000992341F090916601915090936601911130
:100E400001C05D9A90917401992341F090917401D1
:100E5000915090937401911101C0289A84FF18C099
:100E60008091E2008E7E81608093E2008091E100BB
:100E70008F7E8093E100809167018E7E80618093F8
:100E800067019F918F910F900FBE0F901F90189543
:100E900080FFF7CF8091E2008E7E80618093E20038
:100EA0008091E1008E7E8093E100809167018E7ECB
:100EB0008160E5CF1F920F920FB60F921124CF924F
:100EC000DF92EF92FF920F931F932F933F934F93D5
:100ED0005F936F937F938F939F93AF93BF93EF93A2
:100EE000FF93CF93DF93CDB7DEB76C97DEBFCDBF57
:100EF0001092E9008091E80083FF25C068E0CE01F0
:100F000045960E94010582EF8093E8008D8987FF56
:100F100039C09091E80090FFFCCF982F907609F0AF
:100F200034C19E894F89588D2F89F88C911131C019
:100F3000803861F5809165018093F1001092F10095
:100F40008EEF8093E8006C960FB6F894DEBF0FBE6C
:100F5000CDBFDF91CF91FF91EF91BF91AF919F9165
:100F60008F917F916F915F914F913F912F911F9141
:100F70000F91FF90EF90DF90CF900F900FBE0F90EA
:100F80001F9018959EEF9093E800C7CF1092F10044
:100F9000D5CF913059F48111D3CF4130510581F62D
:100FA000809165018D7F80936501CACF933049F4AC
:100FB0008111C6CF4130510519F6809165018260DB
:100FC000F2CF953041F48091E80080FFFCCF20689B
:100FD0002093E300B5CF963009F0A9C00B8D1C8D8E
:100FE00022E01092E9001092630110926201F21265
:100FF0002EC010926101109260010E94D0041F82E5
:1010000099E09983FA8291E09E8390EA98879AEF1B
:1010100099872091620130916301275F3F4F3C83A4
:101020002B838D831092E90010926301109262016C
:10103000109361010093600149E050E0BE016F5FD1
:101040007F4F80E00E94AA040E94D00479CF1093C1
:101050006101009360010E94E703DC0112960D918B
:101060001C910115110509F451C1D801ED91FC91B4
:101070000480F581E02DBE016B5E7F4FC8010995AC
:10108000009709F03EC1F80100851185EACFF3E031
:10109000FF120EC08F89882309F440C0823061F4AA
:1010A00040E860E18DEC96E00E94D80A811148CFBB
:1010B00081E28093EB0047CF813029F440E86BE078
:1010C00081EC96E0F1CF833099F70E94E703DC01D1
:1010D0001296ED90FC908E010F5F1F4F6801E11496
:1010E000F10479F0D701ED91FC910680F781E02DB4
:1010F000B801C7010995080F111DF701E084F184BB
:10110000EECFD8011C92F60101900020E9F731974B
:10111000BF016C197D0940E0C601C6CF6BEA76E0DD
:10112000FB01449150E080E80E94AA0409CF973067
:1011300009F4BECF983021F481E08093F10000CF14
:10114000993009F0FDCE837009F0B2CFECE1F1E007
:1011500081E031E096E32191222371F08093E90050
:101160003093EB00DF0111972C912093EC009093CA
:10117000ED008F5F873079F78EE78093EA00109259
:10118000EA008F8980937501DBCE8B8D9C8D109248
:10119000E9001092630110926201909361018093C3
:1011A0006001898D811192C08E899D89913A49F49F
:1011B000813209F07DCF47E050E063E171E080E0EB
:1011C000B3CF913209F074CF833269F48F89988D4F
:1011D000B0E0A0E080930F0190931001A093110163
:1011E000B0931201ADCE803269F48091E80082FFA5
:1011F000FCCF67E083E191E00E9401058BEF8093D3
:10120000E8009ECE823209F09BCE8F8980931A012E
:10121000EEEFFFE7859194918B3F9C4D51F1E0E01B
:10122000F8E08091130190911401A0911501B09103
:101230001601803B9440A105B105F1F480911A019B
:1012400080FD1AC0EE3F8AE0F80789F587E797E747
:1012500091838083809160008093640188E19BE0AA
:101260000FB6F894A895809360000FBE909360002D
:1012700067CEEEEFFAE0D5CF80819181873797472F
:1012800009F05ECEA895809160008861809360002F
:101290008091640180936000EE3F2AE0F20789F0BC
:1012A0008091FE0A9091FF0A9183808349CE8081CC
:1012B00091818737980751F29093FF0A8093FE0A35
:1012C000C5CF1092FF0A1092FE0A3ACE0E94E703A1
:1012D000DC0112960D911C910115110509F4E8CE5F
:1012E000D801ED91FC910190F081E02DBE016B5E83
:1012F0007F4FC8010995811123CEF8010085118522
:10130000EBCF181619060CF41BCED2CEF1E0FF126B
:10131000BECE6FEA76E004CF1F920F920FB60F9207
:1013200011242F933F938F939F93AF93BF938091FB
:10133000520190915301A0915401B0915501309107
:101340004C0123E0230F2D3758F50196A11DB11D47
:1013500020934C018093520190935301A093540128
:10136000B093550180914D0190914E01A0914F0194
:10137000B09150010196A11DB11D80934D01909334
:101380004E01A0934F01B0935001BF91AF919F9137
:101390008F913F912F910F900FBE0F901F90189536
:1013A00026E8230F0296A11DB11DD2CF1F920F92E6
:1013B0000FB60F921124CF92DF92EF92FF922F93EC
:1013C0003F934F935F936F937F938F939F93AF93CD
:1013D000BF93CF93DF93EF93FF9380914801909158
:1013E0004901A0914A01B0914B01892B8A2B8B2B8B
:1013F00009F446C08091470181110BC088B190E487
:10140000892788B980914601882319F088B18058CE
:1014100088B98091480190914901A0914A01B09109
:101420004B01181619061A061B069CF480914801F8
:1014300090914901A0914A01B0914B010197A109F6
:10144000B1098093480190934901A0934A01B09358
:101450004B01FF91EF91DF91CF91BF91AF919F91A0
:101460008F917F916F915F914F913F912F91FF905D
:10147000EF90DF90CF900F900FBE0F901F901895B8
:101480000E941806811520E8920761F4809171008E
:101490008D7F80937100109291004698479810922A
:1014A0004501D7CF21E020934501813020E8920704
:1014B00031F410924401109243010E94180697FDE6
:1014C00005C020914201222309F454C0209141011A
:1014D000211150C021E020934601EC01DF772097D5
:1014E00009F04BC081E08093470146983FE9C32E45
:1014F0003FE0D32EE12CF12CCAEFD0E0E091D405EF
:10150000F091D5050995811103C081E080934701D1
:1015100080914601882329F080914701882309F4AE
:101520003FC047980E9418060097F1F19C01DE0128
:101530000E945E10DC01CB0129E0B595A795979537
:1015400087952A95D1F7109290002AE02093910078
:10155000D0929900C09298008093480190934901DD
:10156000A0934A01B0934B018091710082608093F7
:1015700071006FCF10924601B0CF9E0150E040E065
:1015800060E472E48FE090E00E941D1069017A012E
:1015900081E0C81AD108E108F10810924701AECFE6
:1015A0004699BFCF479ABECF8FEF9FEFDC01CBCFDD
:1015B000EF92FF920F931F93CF93DF93F82E192F83
:1015C000E62E042F81E0860F880F0E947C0483E0C2
:1015D0000E947C04CF2DD12FEC0EFD2EF11CCE15D8
:1015E000DF05B9F007FF13C0FE0184910E947C045F
:1015F000182F80E00E947C04812321968111EFCF77
:10160000DF91CF911F910F91FF90EF900895888106
:10161000EDCF81E0F5CFE6E7F5E01382128288EEA8
:1016200093E0A0E0B0E084839583A683B78386E24D
:1016300091E0918380838FEF9FEF95878487E8ED1A
:10164000F5E01382128288E391E0918380838AE936
:1016500093E09093D5058093D40580E090E8909333
:10166000D3058093D20546983E9A47983F9A8CE7D7
:1016700090E09093D7058093D6050895CF93DF939C
:1016800000D000D000D01F92CDB7DEB7789484B5DB
:10169000826084BD84B5816084BD85B5826085BD6E
:1016A00085B5816085BD80916E00816080936E00FC
:1016B00010928100809181008260809381008091EE
:1016C000810081608093810080918000816080939F
:1016D00080008091910082608093910080919100C0
:1016E0008160809391008091900081608093900050
:1016F0008091C10084608093C1008091C1008260AC
:101700008093C1008091C10081608093C10080916D
:10171000C30081608093C3008091C0008260809389
:10172000C0008091C20081608093C20080917A00E5
:10173000846080937A0080917A00826080937A003E
:1017400080917A00816080937A0080917A0080682D
:1017500080937A00109275011092650110926701D2
:101760008091D70081608093D70080EA8093D80071
:1017700089B5806189BD89B5826089BD09B400FEE3
:10178000FDCF61E070E080E090E00E946005809114
:10179000D8008F7C80618093D8008091E000807FAA
:1017A0008093E0008091E1008E7E8093E1008DE0E7
:1017B0008093E200559A209A81EC80937C0085B159
:1017C000806F85B984B1877E84B984B1876E84B90E
:1017D0005E9A5F988AB1806D8AB9769A6E9881B365
:1017E000806F81BB899880B38D7080BB80E58CBD94
:1017F00081E08DBD85E090E00E942E065F9A85E035
:1018000090E00E942E065E985C98ECE5F6E089E692
:1018100096E024912EBD00000DB407FEFDCF319659
:101820008E179F07B1F75C9A81E8809364008091DE
:1018300065008160809365000E943B060E9433062C
:1018400087FF15C05C9885EA8EBD00000DB407FEC9
:10185000FDCF5C9A2E982F982D988091640080621D
:101860008093640081E083BF889513BEFCCF0E9403
:10187000330682FF48C02D980E943306847884384E
:10188000E1F40E942C0688EC90E00E942E062F982E
:1018900082E090E00E9407108F3F29F06FEF82E016
:1018A00090E00E940F1084EF91E00E942E062F9A84
:1018B0000E94330684788438D9F30E9433068471F9
:1018C0008431E1F40E942C0688EC90E00E942E0600
:1018D0002E9882E090E00E940710882329F060E0B3
:1018E00082E090E00E940F1084EF91E00E942E06AB
:1018F0002E9A0E94330684718431D9F388EC90E0EB
:101900000E942E06B4CF0E942C0682E090E00E9436
:10191000E906882309F442C03E9A3F9A81E0809309
:10192000510181E090E00E94E906282F2470922E58
:1019300081FF10C021112E98E1EF4E2E55245A94AC
:1019400008E010E00E94330686FF2DC02E9A2F9AE1
:101950000E942C0682E390E00E942E060E9433062D
:101960008111F8CF82E4809300018FB7F894409101
:1019700052015091530160915401709155018FBFF4
:1019800080915801882309F4D1C01092580120E0B9
:1019900030E0232B51F30E940000E7CF1092510159
:1019A0003E983F98BECF992031F034E04316510461
:1019B00011F42E9A2F9881E00E949D03920157FE08
:1019C00004C0222733272419350927703327C20181
:1019D00057FC079673E0959587957A95E1F757FE42
:1019E00005C00197A801421B530B9A01AC01569503
:1019F000542F4427579547954A585E4FD12CC12CF8
:101A00003801621A730A8E3F6FEF9607B1F1DA015F
:101A1000AC56BF4F7A0170E060E0F601E455FA4F32
:101A20005F018F3F980779F0F501E60FF71FE4910A
:101A3000F0E01F01022E01C0220C0A94EAF7F70120
:101A400084882828248A2115310571F0F501E60FD4
:101A5000F71FE491F0E0062C02C0F595E7950A9493
:101A6000E2F7FC91EF2BEC936F5F7F4F1196FFEF46
:101A7000EF1AFF0A68357105A1F6019668E5C60EF2
:101A8000D11C40585F4FE0EBCE16D10409F0BBCF1C
:101A90000E943B068FE090E00E942E06FFEF4F1A57
:101AA0005F0A29E14216510409F04CCF992011F048
:101AB0002F9A2D9880E991E00E942E060E942C0614
:101AC00081E090E00E94E90680FF44CF8AE090E048
:101AD0000E94E9069FEF980F9E3F08F03BCF22E35C
:101AE00030E030935D0120935C0128E330E03093D7
:101AF0005F0120935E014BE050E05A834983682FD9
:101B000088ED95E00E94820689819A810E94E9060B
:101B1000E981FA813196FA83E983719781F70E940E
:101B20003B0688EE93E00E942E0614CF9091590157
:101B3000F42FF91B9F2F20910001F21748F49F5FAB
:101B4000921708F024CF21E023BF889513BE1FCF42
:101B500031E0309358014093590120915601309162
:101B600057012F5F3F4F3093570120935601E6E70F
:101B7000F1E081118FEF0024819381938193819310
:101B80000394D1F710925F0110925E0110925D01F3
:101B900010925C010E94330687FF0DC080910D01F9
:101BA00090910E01883091050CF4EFC0049790934A
:101BB0000E0180930D010E94330684FF0DC08091B9
:101BC0000D0190910E01893391050CF0E5C004964A
:101BD00090930E0180930D0180910B0190910C0167
:101BE000833091050CF0DBC0E3E0F0E0F0930C01F2
:101BF000E0930B018091070190910801A0910901E8
:101C0000B0910A01B0588093070190930801A09306
:101C10000901B0930A0120915A0130915B01209093
:101C2000D6053090D705C0900301D0900401E09014
:101C30000501F090060140910101509102015F837E
:101C40004E832E3731050CF4B4C080E490E09093BD
:101C50005B0180935A0180E290E090930C018093A5
:101C60000B01F7FAF094F7F8F094C0920301D092C8
:101C70000401E0920501F092060180915A019091D1
:101C80005B01009103011091040120910501309145
:101C9000060180900D0190900E01181619060CF4A3
:101CA000CBC080E490E090935B0180935A0140E2C6
:101CB00050E050930C0140930B0130580093030106
:101CC00010930401209305013093060160915A019D
:101CD00070915B01072E000C880B990B0E9412116A
:101CE00020910301309104014091050150910601BA
:101CF0000E946E100E94DA102B017A836983709320
:101D00005B0160935A0160910B0170910C01072EE9
:101D1000000C880B990B0E94121120910701309141
:101D200008014091090150910A010E946E100E9421
:101D3000DA106B017C836B8370930C0160930B0151
:101D40008E819F810597C816D9060CF0ADC02E81F3
:101D50003F812250310930930201209301011F82FB
:101D60001E82AE80BF8093E0A90EB11C0E811F8140
:101D7000A016B10609F4A9C041E0B80180E490E0E2
:101D80000E943E060F5F1F4FF3CF47E050E0509395
:101D90000E0140930D010FCF89E390E019CFCE974C
:101DA0000CF439CF2DE330E030930C0120930B017C
:101DB00021CFC1010397281739070CF45ECF60913A
:101DC0000B0170910C012E813F812A50310962175D
:101DD00073070CF452CF2E813F81265F3F4F2617A9
:101DE00037070CF44ACF90935B0180935A01F7FABE
:101DF000F094F7F8F094C0920301D0920401E092BD
:101E00000501F0920601EE81FF816E1B7F0B072E0C
:101E1000000C880B990B0E94121120E030E040E486
:101E20005FE30E949E116093070170930801809305
:101E3000090190930A0121CF0B970CF047CF6091D5
:101E40000B0170910C01C4010A97681779070CF413
:101E50003DCF4496861797070CF438CF8AE090E080
:101E600090935B0180935A013058009303011093C3
:101E70000401209305013093060168197909072EA2
:101E8000000C880B990B0E94121120E030E040E416
:101E90005FE30E949E116093070170930801809395
:101EA000090190930A0112CF8E819F8105964B8183
:101EB0005C81841795070CF052CF8E819F8102962A
:101EC00090930201809301014ACFEE81FF81389601
:101ED000FF83EE83E034F10509F043CFB601635090
:101EE000710947E0C2010E945C0610E000E0CC24CA
:101EF000C394D12C23E030E03F832E839AEFA92EA8
:101F0000BB24BA942EEFE22EFF24FA940F5F1F4FEA
:101F100062E0C60ED11CEC0CFD1C5E80550C539487
:101F20005D82452D4B805C808E819F81481A590AC5
:101F3000B20189819A81800F911F0E945C066B809B
:101F40007C80601A710A4C2DB30189819A81EE81DF
:101F5000FF818E0F9F1F0E945C064D81B201898117
:101F60009A81801B910B0E945C064C2DB3018981E4
:101F70009A812E813F81821B930B0E945C064E81C9
:101F80005F81041715077CF1C40107979A83898341
:101F90004FE0BC0184E090E00E945C064FE0698164
:101FA0007A8185E090E00E945C064FE069817A8149
:101FB00086E090E00E945C06E0910101F091020150
:101FC0003797FA83E98381010D5F1F4F2016310691
:101FD000D9F04FE069817A81C1010E945C06FFEF70
:101FE0002F1A3F0AF3CF3FEFE316F30609F48ECF23
:101FF0004E815F81415051095F834E8352E0A50EAF
:10200000B11CEA0CFB1C82CF0E943B06C0CCF999A4
:10201000FECF92BD81BDF89A992780B50895262FED
:10202000F999FECF1FBA92BD81BD20BD0FB6F894BD
:10203000FA9AF99A0FBE01960895052E97FB1EF4A1
:1020400000940E94341057FD07D00E943C1007FCFA
:1020500003D04EF40C943410509540953095219552
:102060003F4F4F4F5F4F08959095809570956195C4
:102070007F4F8F4F9F4F0895A1E21A2EAA1BBB1BC3
:10208000FD010DC0AA1FBB1FEE1FFF1FA217B30744
:10209000E407F50720F0A21BB30BE40BF50B661F5A
:1020A000771F881F991F1A9469F76095709580951E
:1020B00090959B01AC01BD01CF010895A29FB00195
:1020C000B39FC001A39F700D811D1124911DB29F6C
:1020D000700D811D1124911D08955058BB27AA270A
:1020E0000E9485100C9464110E94561138F00E94D1
:1020F0005D1120F039F49F3F19F426F40C9453112C
:102100000EF4E095E7FB0C944D11E92F0E94751138
:1021100058F3BA17620773078407950720F079F41C
:10212000A6F50C9497110EF4E0950B2EBA2FA02D66
:102130000B01B90190010C01CA01A0011124FF2774
:10214000591B99F0593F50F4503E68F11A16F0406F
:10215000A22F232F342F4427585FF3CF469537956E
:102160002795A795F0405395C9F77EF41F16BA0B33
:10217000620B730B840BBAF09150A1F0FF0FBB1FE1
:10218000661F771F881FC2F70EC0BA0F621F731F2A
:10219000841F48F4879577956795B795F7959E3F87
:1021A00008F0B0CF9395880F08F09927EE0F979518
:1021B000879508950E94E1106894B1110C949811CC
:1021C00008950E947D1188F09F5798F0B92F9927A4
:1021D000B751B0F0E1F0660F771F881F991F1AF012
:1021E000BA95C9F714C0B13091F00E949711B1E0CF
:1021F00008950C949711672F782F8827B85F39F0CE
:10220000B93FCCF3869577956795B395D9F73EF4AA
:1022100090958095709561957F4F8F4F9F4F089552
:10222000E89409C097FB3EF4909580957095619570
:102230007F4F8F4F9F4F9923A9F0F92F96E9BB2726
:102240009395F695879577956795B795F111F8CFA2
:10225000FAF4BB0F11F460FF1BC06F5F7F4F8F4F0D
:102260009F4F16C0882311F096E911C0772321F003
:102270009EE8872F762F05C0662371F096E8862F9B
:1022800070E060E02AF09A95660F771F881FDAF7F2
:10229000880F9695879597F9089597F99F6780E835
:1022A00070E060E008959FEF80EC089500240A94A8
:1022B0001616170618060906089500240A94121621
:1022C0001306140605060895092E0394000C11F454
:1022D000882352F0BB0F40F4BF2B11F460FF04C001
:1022E0006F5F7F4F8F4F9F4F089557FD9058440F5A
:1022F000551F59F05F3F71F04795880F97FB991F65
:1023000061F09F3F79F08795089512161306140621
:10231000551FF2CF4695F1DF08C0161617061806AE
:10232000991FF1CF86957105610508940895E89489
:10233000BB2766277727CB0197F908950E94B11133
:102340000C9464110E94561138F00E945D1120F027
:10235000952311F00C944D110C94531111240C94ED
:1023600098110E94751170F3959FC1F3950F50E07D
:10237000551F629FF001729FBB27F00DB11D639F37
:10238000AA27F00DB11DAA1F649F6627B00DA11DDD
:10239000661F829F2227B00DA11D621F739FB00D83
:1023A000A11D621F839FA00D611D221F749F3327F3
:1023B000A00D611D231F849F600D211D822F762F8C
:1023C0006A2F11249F5750409AF0F1F088234AF069
:1023D000EE0FFF1FBB1F661F771F881F91505040D5
:1023E000A9F79E3F510580F00C944D110C94981163
:1023F0005F3FE4F3983ED4F3869577956795B7955C
:10240000F795E7959F5FC1F7FE2B880F911D969575
:10241000879597F90895EE0FFF1F0590F491E02D31
:062420000994F894FFCFBF
:10242600102000000000400000004020002000FFB7
:10243600FFFFFF00E100000000000000C1808100F6
:10244600000000000000FB0393051C041104620455
:1024560020043E040000000082060E05E606E5069E
:00000001FF
